:020000040800F2
:1084000098200020B5850008BD850008BF850008BC
:10841000C1850008C3850008C5850008000000006C
:10842000000000000000000000000000C7850008F8
:10843000C985000800000000CB85000819D200089B
:10844000CF850008CF850008CF850008CF850008BC
:10845000CF850008CF850008CD910008CF850008A2
:10846000CF850008CF850008CF850008CF8500089C
:10847000CF850008CF850008CF850008CF8500088C
:10848000CF850008CF850008CF850008CF8500087C
:10849000CF850008CF850008CF850008CF8500086C
:1084A000CF850008CF850008CF850008CF8500085C
:1084B000CF850008CF850008CF850008CF8500084C
:1084C000CF850008CF850008CF850008CF8500083C
:1084D000CF850008F1D60008CF850008CF850008B9
:1084E000D9910008CF850008CF850008CF85000806
:1084F000CF85000800F002F800F03AF80AA090E8F2
:10850000000C82448344AAF10107DA4501D100F04E
:108510002FF8AFF2090EBAE80F0013F0010F18BFE1
:10852000FB1A43F001031847B06A0000D06A00004C
:10853000103A24BF78C878C1FAD8520724BF30C88F
:1085400030C144BF04680C60704700000023002461
:1085500000250026103A28BF78C1FBD8520728BF53
:1085600030C148BF0B6070471FB51FBD10B510BDAF
:1085700000F06AF81146FFF7F7FF05F071FF00F011
:1085800088F803B4FFF7F2FF03BC00F08FF8000097
:1085900072B6704762B6704730BF72B662B680F38B
:1085A0000888704780F310887047EFF3108072B628
:1085B000704700000948804709480047FEE7FEE78A
:1085C000FEE7FEE7FEE7FEE7FEE7FEE7FEE7FEE783
:1085D00004480549054A064B7047000075D200085B
:1085E000F584000898160020982000209818002094
:1085F000981800204FF0000200B5134694469646A6
:10860000203922BFA0E80C50A0E80C50B1F12001A5
:10861000BFF4F7AF090728BFA0E80C5048BF0CC053
:108620005DF804EB890028BF40F8042B08BF7047B1
:1086300048BF20F8022B11F0804F18BF00F8012B23
:108640007047704770477047754600F02BF8AE468C
:1086500005006946534620F00700854618B020B54E
:10866000FFF7B6FFBDE820404FF000064FF00007CF
:108670004FF000084FF0000B21F00701AC46ACE8CA
:10868000C009ACE8C009ACE8C009ACE8C0098D4637
:10869000704710B50446AFF300802046BDE8104097
:1086A000FFF76FBF004870473416002001491820BB
:1086B000ABBEFEE7260002007047000010B50024A4
:1086C0003248006840F001003049086000F066F868
:1086D00005E0601C0446B0F57A7F00D905E02B4820
:1086E000006800F002000028F3D000BF27482030C7
:1086F000006840F400702549203108602348143098
:10870000006840F400702149143108600846006890
:1087100020F4007008601E4800681E4908401C498B
:108720000860084600680860084600680860081D80
:108730000068194908401649091D08600846006884
:108740000860084600680860084600680860084637
:10875000006808600E482C3000680D492C31086014
:108760000B483C30006820F01F0009493C3108608C
:108770000846006840F0080008600548001D0068D1
:1087800040F001000249091D086010BD0038024098
:1087900004240140FFFEFFFCFDF7FFC010B540229E
:1087A0008021002000F00AFF8021002000F066FFF9
:1087B000C0220121084600F001FF10BD0146002241
:1087C0000D48006840F080400B4B186007E0501CDB
:1087D00080B20246B0F5FA6F01DD0020704706480E
:1087E0000838006800F002000028F0D0024850303D
:1087F000006808800120F1E708240140F8B504462C
:108800000D460026002000901548006840F0010049
:1088100013490860002716E06846FFF7CFFF0128DC
:1088200007D1BDF8000006444FF4FA7005F0E8FCEB
:1088300007E00B48006820F00100094908600020AB
:10884000F8BD781CC7B2A742E6DBB6FBF4F028807F
:108850000348006820F00100014908600120EFE7AB
:108860000824014010B58021002000F0FDFE10BD5D
:1088700010B58021002000F001FF10BD38B5A52003
:10888000009000BF4FF4005004466A46012105F0F5
:1088900027FB0A4890F8720670B140F2736200211B
:1088A000064805F03CFE00BF42F201000446034AC0
:1088B00040F2736105F014FB38BD0000000B00208E
:1088C00010B500BF42F201000446084A40F273614D
:1088D00002F0C6FE00B910BD044890F872063228B6
:1088E00001DDFFF7CBFF00BFF5E70000000B002024
:1088F000F8B505460020009000240026684600F0E8
:1089000019F901286FD18A480088BDF80010884203
:1089100001DC642604E186484088BDF800108842E6
:1089200013DC8348008882494988401A0A2190FB59
:10893000F1F07F494988BDF80020511A91FBF0F011
:10894000C4B204F15A00C6B2EAE079488088BDF8A2
:108950000010884213DC7648408875498988401A9F
:108960000A2190FBF1F072498988BDF80020511A64
:1089700091FBF0F0C4B204F15000C6B2D0E06C48F4
:10898000C088BDF80010884213DC694880886849B7
:10899000C988401A0A2190FBF1F06549C988BDF8E1
:1089A0000020511A91FBF0F0C4B204F14600C6B2A7
:1089B000B6E05F480089BDF80010884214DC5C48CE
:1089C000C0885B490989401A0A2190FBF1F0584997
:1089D0000989BDF80020511A91FBF0F0C4B204F1EE
:1089E0003C00C6B29CE09EE051484089BDF80010B2
:1089F000884213DC4E4800894D494989401A0A21B2
:108A000090FBF1F04A494989BDF80020511A91FBC9
:108A1000F0F0C4B204F13200C6B281E0444880896B
:108A2000BDF80010884213DC4148408940498989DB
:108A3000401A0A2190FBF1F03D498989BDF80020D8
:108A4000511A91FBF0F0C4B204F12800C6B267E0FD
:108A50003748C089BDF80010884213DC344880894B
:108A60003349C989401A0A2190FBF1F03049C9897C
:108A7000BDF80020511A91FBF0F0C4B204F11E00C1
:108A8000C6B24DE02A48008ABDF80010884213DCC7
:108A90002748C0892649098A401A0A2190FBF1F02B
:108AA0002349098ABDF80020511A91FBF0F0C4B2A5
:108AB00004F11400C6B233E01D48408ABDF800102E
:108AC000884213DC1A48008A1949498A401A0A2147
:108AD00090FBF1F01649498ABDF80020511A91FB2C
:108AE000F0F0C4B204F10A00C6B219E01048808A5E
:108AF000BDF80010884212DC0D48408A0C49898A72
:108B0000401A0A2190FBF1F00949898ABDF800203A
:108B1000511A91FBF0F0C4B2601CC6B200E001260D
:108B20002E700120F8BDFF2028700020FAE7000019
:108B300032EF000838B50446002000900025FFF70A
:108B400097FE69460A20FFF759FE01280CD1BDF8AF
:108B5000000040F2393100FB01F5C5F34F202080C1
:108B6000FFF780FE012038BDFFF77CFE0020FAE70A
:108B700010B5FFF7A3FD0648FFF7BAFE012802D1A2
:108B80000449087002E000200249087010BD00008E
:108B9000280000202900002010B50C4C0FE000F048
:108BA00073FC2168884209D1241F2068492802D318
:108BB00020685D2800D906E0207810BD241D0348F8
:108BC000E0308442EBD300BF5320F6E720040008D6
:108BD000044890F87206322801DB0120704700201B
:108BE000FCE70000000B002010B50446012C02D168
:108BF000FFF7EEFF10BDFF20FCE7000010B50446B4
:108C00002348008870B9082C00D3012404F0E8FC44
:108C1000204931F81410B0FBF1F201FB1200801C66
:108C20001B4908800221012000F014FDD0B918482A
:108C30000088401E80B21649088030BB1648008864
:108C4000401C80B214490880642804DD002008809C
:108C5000042003F0EDFF00200D4908800F49088033
:108C6000012010BD00200A4908800B4908800B48EC
:108C70000088401C80B209490880B0F57A7F04DD85
:108C800000200880042003F0D3FF0020E9E7000063
:108C9000180000202AEF0008160000201400002011
:108CA0002DE9F04106460F46042506E0681E305CBB
:108CB000FF2800D003E0681EC5B2002DF6DC00BF1F
:108CC0000024601E38601CE0305DFF2817D004F0DF
:108CD00021FD804610E0A8F10100C0B280460B499A
:108CE00001EBC000005D315D884205D0012101FA31
:108CF00008F1386888433860B8F1000FEBD1601C88
:108D0000C4B2AC42E0DB2846BDE8F0812416002066
:108D100030B50246002138E02C4800EB0110006815
:108D2000D2F80B40A0422ED100230BE0274800EBE5
:108D300001100830C05CD47BA04201D1002030BDBE
:108D4000581CC3B2052BF1DB204800EB0110407B1F
:108D5000401CC0B21D4C04EB01146073052490FB51
:108D6000F4F504FB1500194C04EB01146073D47B7B
:108D7000164800EB01100830144D05EB01156D7B12
:108D800044550120DBE7481CC1B21429C4DB10485C
:108D90000078401CC0B20E4C2070142490FBF4F5F7
:108DA00004FB15000A4C2070D07B084C084D2D7830
:108DB00004EB05142072D2F80B400448044D2D78C2
:108DC00000EB051004600120B9E7000074110020D9
:108DD000080000202DE9F04105460E4600241FE062
:108DE00004EB44101249085CC0B104EB4410084481
:108DF000C07C1230C7B204EB44100A461044811CF8
:108E00003A46304605F04CFB40B904EB44100849A3
:108E10000844407828700120BDE8F081601CC4B28D
:108E2000034890F87206A042DADC0020F4E7000064
:108E3000000B002070B503460C46002500260021DB
:108E40000DE0585C80EA0502074810F8120080EA3D
:108E50000605054830F812000612481C81B2A142EE
:108E6000EFDB46EA052070BDDCEA000870B5044679
:108E70000D461646012C04D131462846FFF7AAFFBD
:108E800070BDFF20FCE710B5002003F019F810BDFD
:108E900010B50446092C3AD2DFE804F039050B116D
:108EA000171D23293100994201DA012010BD00204D
:108EB000FCE7994201DC0120F8E70020F6E799423F
:108EC00001DD0120F2E70020F0E7994201DB0120FB
:108ED000ECE70020EAE7994201D10120E6E7002013
:108EE000E4E7994201D00120E0E70020DEE7994263
:108EF00003DC9A4201DB0120D8E70020D6E7994243
:108F000001DC9A4201DA0120D0E70020CEE7002000
:108F1000CCE700000548006800F0010028B10448D3
:108F2000024908310860034808607047043C024069
:108F3000EFCDAB890504030210B50249024802F0E7
:108F4000C5F910BD68090020500000200C48806859
:108F500040F001000A4988600A48006D086009482D
:108F6000406D08600748406E086007480068086068
:108F700005480E3000680860084600687047000029
:108F8000003002400000F81F8203000870B504465C
:108F9000394890F87206401EA0423AD0364A92F8FC
:108FA0007226521E02EB4212334BD11804EB4412CC
:108FB000D018212205F088FA00BF42F201002121D9
:108FC00001FB040504EB44102B49421821212846DB
:108FD00004F086FF284991F87216491E01EB4111F1
:108FE000254A88182122002105F099FA00BF42F293
:108FF0000101214890F87206401E212202FB001553
:1090000004EB44101C4942182121284604F068FF53
:1090100015E004EB4411184A88182122002105F0BC
:109020007EFA00BF42F20100212101FB040504EB9E
:109030004410114942182121284604F051FF0E48DE
:1090400090F87206002814DD0B4890F87206401E56
:10905000094981F8720600BF42F201010748064A39
:10906000801A0D18054A0121284604F039FF012015
:1090700070BD0020FCE70000000B002072110020F2
:1090800070B50446012C10D140F2736200210848EB
:1090900005F045FA00BF42F201000546044A40F2DD
:1090A000736104F01DFF012070BDFF20FCE700008C
:1090B000000B00202DE9F0410546002400261C4845
:1090C00090F8720610B90120BDE8F0811FE004EBB2
:1090D0004410174908448078A84216D101260A4650
:1090E00092F87226521E02EB42120B46D11804EB84
:1090F0004412D018212205F0E7F90D4890F87206C5
:10910000401E0B4981F8720601E0601CC4B2084899
:1091100090F87206A042DADC46B100BF42F20100CC
:109120000746034A40F2736104F0DAFE0120CBE700
:10913000000B002070B505460C46012D07D1322CDE
:1091400003DA2046FFF722FF70BD0020FCE7FF2076
:10915000FAE770B505460C46FF2C03D12846FFF709
:109160008FFF70BD2146284602F036FA0646FF28DA
:1091700004D031462846FFF7DDFFF2E70120F0E793
:10918000002107E0052101E04A1E91B20029FBDC25
:10919000421E90B20028F5DC7047704770B5044657
:1091A0000D4616466019B0F5004F02D8B4F5405F81
:1091B00001D2112070BD32462946204604F090FEAF
:1091C00008B91020F6E70120F4E70000012001496A
:1091D000086070471404014010B5044802F0A6FA74
:1091E0004FF480600249086010BD0000400000207C
:1091F0001404014070B504460B46CE1701EB967679
:10920000C6F38700CE1701EB9676B610A1EB860663
:10921000B606350E1B4B1B6843F00103194E336035
:10922000194B53F820300F26AE40B343164E46F884
:109230002030334653F8203004FA05F61E43124B13
:1092400043F82060114B1B6801268E4033430F4EBC
:10925000336002F0010343B10C4B0C331B68012651
:109260008E403343094E0C36336002F0020343B1A3
:10927000064B08331E6801238B401E43034B083303
:109280001E6070BD2038024008000140000401400B
:1092900010B54FF480621049104804F0BDFF4FF440
:1092A00080620F490F4804F0B7FF00200E49487054
:1092B00088700E48C1F8040100200D494870012053
:1092C00088700C48C1F804010B4B032200210220D6
:1092D00004F050F810BD00006000002040000020A5
:1092E000600400205000002060080020C5A900088C
:1092F00068090020B1CF0008398F000870B5044616
:109300004FF4005000F0D0F80546E5B91148006868
:1093100040F400700F4908600846006840F00800FB
:109320000860002020604FF4005000F0BDF80546B2
:109330000848006820F008000649086008460068F0
:1093400020F40070086015B900F0A0F870BD00208E
:10935000FCE70000043C024070B504460D46402086
:10936000207021782A46002002F07AF970BD10B5ED
:1093700000224021104604F0EFFD10BD38B5044630
:10938000A0006A46042102F06BF90098401C00908E
:10939000A0006A46042104F0A3FD38BD10B5034BBC
:1093A0000122FF21002001F08EFC10BD0D000020E5
:1093B00070B506460C46154626B1012E09D0022E80
:1093C00012D109E0022004F091FB0C4804F046F8A9
:1093D0000BE004F00BFD08E02DB12B460522002127
:1093E000084603F0C7FF00E000BF00BF24B1012C16
:1093F00002D02046FFF7C2FF70BD0000BDA50008E7
:109400001CB51B4903C9CDE900011A48006840F4A6
:109410008050184908601848806840F001001649DB
:1094200088600846007940F0FF0008711348006822
:10943000134988421AD011490A3908680E498968C7
:1094400041F001010C4A91600E49096D11600D490E
:10945000496D11600B49496E116011460860096839
:1094600001916A460821054801F0AEFF1CBD0000CD
:109470000CEF00081C380240003002408C0300084A
:10948000A542BD5A0000F81F00207047054800683B
:1094900000F0020020B1022002490860012070475C
:1094A0000020FCE7183C0240014600E0491E29B1BB
:1094B0000A48006800F001000028F7D109B901202E
:1094C00070470648006800F4F85028B14FF4F8508F
:1094D000024A10600120F3E70020F1E7183C024047
:1094E00000B50748006800F0020038B1FFF712FD30
:1094F000044803490C3108600348086000BD0000BF
:10950000043C0240BFAE9D8C1615141370B5054681
:109510000C4616464FF44050FFF7C6FF70B90AE0FC
:1095200030682860361D2D1D241F4FF44050FFF772
:10953000BBFF00B101E0002CF2DC00BF0CB9012040
:1095400070BD0020FCE700000348006840F0020006
:109550000149086070470000043C0240F0B5034632
:109560001446154D05EB8322002022E001F0010591
:10957000EDB1C60802F1200555F826504607F70E52
:109580000F26BE40B543C70802F1200646F8275013
:10959000C60802F1200555F826504607F60E04FAD3
:1095A00006F63543C70802F1200646F82750491051
:1095B000401C0029DADCF0BD00000240F0B5044692
:1095C0000B46224D05EB8420214D2D680126A64037
:1095D00035431F4E3560002135E003F0010585B3AA
:1095E00005684F000326BE40B54305608688012507
:1095F0008D40AE43868085684F000326BE40B5434C
:109600008560C5684F000326BE40B543C560950917
:109610004E00B5400668354305608688C2F30015E4
:109620008D402E43868085684F00C2F38106BE4080
:109630003543856002F003054E00B540C6683543EA
:10964000C5605B10491C002BC7DCF0BD0000024068
:109650001C3802400246034800EB8223188A084067
:109660007047000000000240034B03EB8022938A06
:109670008B439382704700000000024002460B4675
:10968000034800EB8221888A18438882888A7047C1
:109690000000024010B5034601221FE000210DE04A
:1096A00001EB41100F4C205C30B101EB4110204424
:1096B0004078904200D106E0481CC1B2094890F8B9
:1096C00072068842ECDC00BF064890F872068842B9
:1096D00002D11A70012010BD501CC2B2FE2ADDDB7F
:1096E0000020F8E7000B002070B504460D46012C61
:1096F00003D12846FFF7CEFF70BDFF20FCE7000036
:1097000000487047C01500204E20704770B50646CF
:109710000C461546FFF740FA28700120207070BDF6
:1097200003460348007A107001200870704700005B
:10973000141500202DE9F04104460D461646A07888
:10974000022801DCA07810B90F20BDE8F081E07894
:1097500098B90127002028700AE0104800EBC700E4
:10976000C079297870542878401C2870781CC7B2BA
:1097700003F0D0FFB842F0DC0EE003F0CBFFE1785D
:10978000884201DC0E20E0E7E078044901EBC000EC
:10979000C0793070012028700120D6E724160020FF
:1097A0000346034840681060042008700120704799
:1097B0001415002070B506460C4615460120207091
:1097C000FFF7A2FF2870012070BD000010B503460E
:1097D000987858B110480068B3F80340A04205D00B
:1097E000B3F803004FF6FF74A04212D100200870B6
:1097F000094800880C7810530878801C08700648C7
:10980000001D00680C7810510878001D08700120B8
:1098100010BD1220FCE70000000400082DE9F04113
:1098200004460D461746E178207901EB002086B208
:109830006079822802DD0E20BDE8F081B6F5004F88
:1098400001DB1120F8E760793044B0F5004F02DD0C
:109850007042287001E06079287029783A463046D5
:1098600001F0FEFE08B91020E6E70120E4E770B53C
:1098700006460C46154629462046FFF76DFD012099
:1098800070BDF8B504460D4616466946201DFFF723
:1098900007FA0746A078032801DA0F20F8BDE07820
:1098A00038B103F037FFE178884202DD207A1028D2
:1098B00001DA0E20F2E7E1780120884000990840A3
:1098C00040B101202870227AE078394600F09AFBF6
:1098D000307003E0002028700720DFE70120DDE77B
:1098E00070B506460C46154604F078FA0D48007827
:1098F000F1280BD12946204604F000F820B1F220CF
:1099000008490870012070BD0020FCE70548007878
:10991000F22801D10120F6E7002002490870032057
:10992000F1E700000000002070B504460D46164621
:10993000E078012802D0042814D109E06179207967
:1099400033462A4601F0D9FE012800D170BD0AE055
:109950006179207933462A4601F049FE08B1012099
:10996000F4E700E000BF00BF1520EFE72DE9F0436A
:10997000C1B080460C4616460020207098F80200C0
:10998000002841DD98F8029001A800EB090501AF1D
:109990004A4608F10301384604F096FD2EE0052002
:1099A000287017F8010B687017F8010BA8700020D9
:1099B000E870284601F016F801281FD1697822784E
:1099C000501C2070B154A9782278501C2070B154DA
:1099D000E878401EC1B2E9702278501C2070B15462
:1099E000EA7821788819691D04F06EFD2078E978FD
:1099F0000844207020785A2800DD03E001A848447C
:109A0000B842CCD800BF48E003F084FE07463EE0F1
:109A1000244800EB0710C56800BF287901282BD126
:109A20008DF8007128788DF8010100208DF8020171
:109A3000E86808B32078C01C82190DF2031140A811
:109A4000EB689847012817D12178481C207077547B
:109A500029782278501C2070B1549DF80311227887
:109A6000501C2070B15420789DF8031108442070D8
:109A700020785A2800DD09E005F110002968054624
:109A80000068814202D22868FF28C6D900BF381E6C
:109A9000A7F10101CFB2BBD100BF012041B0BDE8A9
:109AA000F083000048EF00080346064800780128CC
:109AB00005D1054800781070012008707047122009
:109AC000FCE700002900002028000020F0B5034634
:109AD0000C460025D878FF2824D1002020700021D2
:109AE0001DE01B4800EB81000068B0B1184800EB96
:109AF00081000068401C80B1481C05EB850690552C
:109B0000134800EB8100066805EB8507501CC65121
:109B10002078401D2070681CC5B2481CC1B20529C0
:109B2000DFDB12E0D87810B1D878052801DD0F20EE
:109B3000F0BDD8781070D878401E054E06EB800036
:109B40000068C2F80100052020700120F0E7000045
:109B50001E15002003460548807F012800D100E043
:109B600000201070012008707047000014150020BC
:109B700070B506460D4614461C4800884AF6552125
:109B8000884229D11948801C0068401C20B317481E
:109B9000801C006800B31548801C0068B0F1443F89
:109BA0001AD01248801C0068B0F1883F14D00F48CA
:109BB000801C00680E4988420ED00C48801C00684A
:109BC0008906D1F88613C943884205D14FF0006059
:109BD000D0F88203206002E04FF0FF302060201DAB
:109BE00000F096F810202870012070BD8003000856
:109BF00042455354F8B504460E4615466946201DA5
:109C0000FFF74EF80746A078032801DA0F20F8BDC9
:109C1000E07838B103F07EFDE178884202DD207AF9
:109C2000102801DA0E20F2E7E1780120884000993F
:109C3000084068B1227AE0782B46394602F084F871
:109C4000287830703278691C284604F04BFC03E019
:109C5000002030700720DAE70120D8E701480068CB
:109C600070470000B412002003460D2008700A4817
:109C7000006810600848406850600748007A107219
:109C80000548407A50720448408950810348007862
:109C90001073012070470000B4120020090000205A
:109CA00003460D2008700A480068106008484068A4
:109CB00050600748007A10720548407A5072044894
:109CC00040895081034800781073012070470000DC
:109CD000B4120020090000200148007A70470000FB
:109CE000B41200200346012008700248007810706A
:109CF000012070470900002010B503465C78012060
:109D000008700248005D1070012010BD2C0000207A
:109D10000449096D01600349496D41600149496E7B
:109D2000816070470000F81F2DE9F04104460D46A0
:109D30001646A078032802DD0F20BDE8F081E07808
:109D400008B1A07898B90127002028700AE01048CF
:109D500000EBC7008079297870542878401C28705F
:109D6000781CC7B203F0D6FCB842F0DC0EE003F07A
:109D7000D1FCE178884201DC0E20DEE7E07804497E
:109D800001EBC00080793070012028700120D4E7F9
:109D9000241600202DE9F04104460D461646A07811
:109DA000032801DCA07810B90F20BDE8F081E0782D
:109DB00090B901270020287009E00F4850F83700BB
:109DC000297870502878001D2870781CC7B203F0DD
:109DD000A1FCB842F1DC0DE003F09CFCE178884284
:109DE00001DC0E20E1E7E078034951F830003060F3
:109DF000042028700120D8E7241600202DE9F04126
:109E000004460D461646A078032801DCA07810B958
:109E10000F20BDE8F081E07898B901270020287074
:109E20000AE0104800EBC700808829787052287833
:109E3000801C2870781CC7B203F06CFCB842F0DCC0
:109E40000EE003F067FCE178884201DC0E20E0E7D9
:109E5000E078044901EBC00080883080022028703F
:109E60000120D6E72416002003460348006810604E
:109E700004200870012070471415002070B50446B6
:109E80000020087042F290700D7850530878801CC2
:109E90000870144800680D7850510878001D08704B
:109EA0001048001D00680D7850510878001D08709A
:109EB0004FF00060D0F800030D7850510878001D75
:109EC0000870084BF43B05E01D780E78701C087094
:109ED00095555B1C18785A2802DC18783028F3DA7C
:109EE000012070BD040400082DE9F05F8246504651
:109EF00004F0F3FB80460022094B04F001FC064607
:109F000000224FF0814304F013FB044604F0B8FB39
:109F1000834600220A2104F01FF8BDE8F09F0000EC
:109F2000000024402DE9F74F86B089461446484684
:109F300004F0D3FB054600224FF0804304F0E0FB21
:109F400082468B46069804F0C8FB074600222C4B3D
:109F500004F0D6FB054600224FF0814304F0E8FAF6
:109F600052465B46CDE9000104F0E2FACDE9020178
:109F700004F086FB05AA0221049001F071FB102C6D
:109F80000CDA0120A040BDF81410084030B10120C7
:109F9000A040BDF814108143059107E0FF2C02D1C9
:109FA0000020059002E009B0BDE8F08F484604F0BB
:109FB00094FB054600224FF0804304F0A1FB82464B
:109FC0008B46069804F089FB074600220C4B04F0F0
:109FD00097FB054600224FF0814304F0A9FA524650
:109FE0005B46CDE9000104F0A3FACDE9020104F0DB
:109FF00047FB05AA0221049003F072FF00BFD2E7DD
:10A00000000024402DE9F74F86B00C4691462046CB
:10A0100004F063FB054600224FF0804304F070FB20
:10A02000CDE90201069804F058FB07460022124BC6
:10A0300004F066FB054600224FF0814304F078FAF5
:10A04000CDE90001DDE9022304F072FA824604F052
:10A0500017FB05AA0221049001F002FB012000FA7F
:10A0600009F0BDF81410084018B1012009B0BDE88E
:10A07000F08F0020FAE700000000244010B5012412
:10A0800004E02046FFF730FF601CC4B203F042FB3F
:10A09000A042F6DC10BD00002DE9F74F86B08946DE
:10A0A0001446484604F019FB054600224FF0804351
:10A0B00004F026FB82468B46069804F00EFB07460A
:10A0C0000022294B04F01CFB054600224FF081437F
:10A0D00004F02EFA52465B46CDE9000104F028FA5E
:10A0E000CDE9020104F0CCFA05AA0221049001F0A6
:10A0F000B7FA102C34DA0120A040BDF81410084043
:10A1000070BB0120A040BDF81410084380B2059038
:10A11000484604F0E2FA054600224FF0804304F07E
:10A12000EFFA82468B46069804F0D7FA07460022DB
:10A130000D4B04F0E5FA054600224FF0814304F090
:10A14000F7F952465B46CDE9000104F0F1F9CDE99B
:10A15000020104F095FA05AA0221049003F0C0FE62
:10A1600009B0BDE8F08F00000000244017480088C7
:10A170004AF65521884228D11448801C0068401CAA
:10A1800018B31248801C0068F8B11048801C0068A1
:10A19000B0F1443F19D00D48801C0068B0F1883FF1
:10A1A00013D00A48801C0068094988420DD007482E
:10A1B000801C00688906D1F88613C943884204D1FF
:10A1C0000248801C0068034948607047800300080B
:10A1D000424553541415002001461E4800884AF693
:10A1E000552290422CD11B48801C0068401C38B37B
:10A1F0001848801C006818B31648801C0068B0F12D
:10A20000443F1DD01348801C0068B0F1883F17D030
:10A210001048801C0068104A904211D00D48801CE4
:10A2200000689206D2F88623D243904208D10948AA
:10A23000801C006888420AD00648801C006870476D
:10A240000648406E884202D00448406EF7E700207E
:10A25000F5E7000080030008424553540000F81F52
:10A2600001461220704710B5044640210120FFF737
:10A27000FBF90220FEF784FF24B180210120FFF7C3
:10A28000FDF903E080210120FFF7EEF90220FEF73F
:10A2900077FF40210120FFF7F1F90220FEF770FF60
:10A2A00040210120FFF7E0F910BD10B54D22C0217B
:10A2B0000120FFF783F9C0210120FFF7DFF910BD6E
:10A2C00070B506460024012280211046FFF776F97A
:10A2D00080210120FFF7D2F900251BE04021012059
:10A2E000FFF7C2F90220FEF74BFF40210120FFF7E4
:10A2F000C5F90220FEF744FF6006040E802101200C
:10A30000FFF7A8F908B1601CC4B20220FEF738FFBD
:10A31000681CC5B2082DE1DB40210120FFF7A4F93C
:10A320000220FEF72DFF4D2280210120FFF746F984
:10A3300080210120FFF7A2F90220FEF721FF30461D
:10A34000FFF791FF204670BD70B504464021012003
:10A35000FFF78AF90220FEF713FF002520E004F042
:10A36000800020B180210120FFF788F903E08021DF
:10A370000120FFF779F96006040E0220FEF700FFC6
:10A3800040210120FFF77AF90220FEF7F9FE402173
:10A390000120FFF769F90220FEF7F2FE681CC5B242
:10A3A000082DDCDB00F030F870BD10B580210120F5
:10A3B000FFF764F940210120FFF760F90220FEF762
:10A3C000DFFE80210120FFF74FF90220FEF7D8FEC3
:10A3D00040210120FFF748F910BD10B58021012070
:10A3E000FFF742F90220FEF7CBFE40210120FFF7E4
:10A3F00045F90220FEF7C4FE80210120FFF73EF957
:10A400000220FEF7BDFE10BD10B500240122802100
:10A410001046FFF7D3F880210120FFF72FF9022023
:10A42000FEF7AEFE40210120FFF728F90220FEF7DB
:10A43000A7FE10E0601C80B20446B0F5FA7F0ADD8A
:10A440004D2280210120FFF7B9F880210120FFF77C
:10A4500015F9002010BD80210120FFF7FBF800282E
:10A46000E8D140210120FFF7FFF80220FEF788FE27
:10A470004D2280210120FFF7A1F880210120FFF764
:10A48000FDF80220FEF77CFE0120E3E770B50546EB
:10A490000C4600BFFFF789FF2846FFF755FF10B9AC
:10A4A000601E041EF6D1FFF798FF0CB1012070BDAD
:10A4B0000020FCE72DE9F04107460E4615461C46F4
:10A4C000FFF773FF3846FFF73FFFF0B13012FFF799
:10A4D0003BFFD0B1F0B2FFF737FFB0B1FFF765FF38
:10A4E00047F00100FFF730FF78B106E00020FFF7EA
:10A4F000E7FE05F8010B601EC4B2012CF6DC601EFD
:10A50000C4B20120FFF7DCFE2870FFF766FF14B924
:10A510000120BDE8F0810020FBE72DE9F04107466E
:10A520000D4616461C46FFF740FF3846FFF70CFF66
:10A5300098B12812FFF708FF78B1E8B2FFF704FFDF
:10A5400058B107E016F8010BFFF7FEFE00B903E073
:10A55000601EC4B2002CF5DC00BFFFF73EFF14B94B
:10A560000120BDE8F0810020FBE72DE9F04107461E
:10A570000D4616461C46FFF718FF3846FFF7E4FE67
:10A5800090B12812FFF7E0FE70B1E8B2FFF7DCFEF1
:10A5900050B106E03046FFF7D7FE00B903E0601E79
:10A5A000C4B2002CF6DC00BFFFF717FF14B901207E
:10A5B000BDE8F0810020FBE770477047704700005E
:10A5C00010B502F028FB044B4FF448720121002023
:10A5D00002F0D0FE10BD000023CC000800BF704781
:10A5E00010B50446FEF7C4FA02F00AFB064B0A2235
:10A5F0000021022002F0BEFE044B64220021022052
:10A6000002F0B8FE10BD000011A60008F5A8000871
:10A61000F8B5684600F04AF806463F2E3DD00025C2
:10A6200004E000201E494855681CC5B2072DF8DB20
:10A6300002F0D6FF04461B480068201AB0F5FA7FE6
:10A6400002D218480460F8BD1648046002F032FDDA
:10A6500002F0E1FA144BC8220121002002F08AFE28
:10A660009DF8000001280AD10D49885501231A469A
:10A670003146184600F038FF03F004FA0DE09DF86B
:10A680000000022809D106498855022301223146DB
:10A69000104600F029FF03F0F5F900BFD3E70000F2
:10A6A0002C0000203C00002023CC000810B50446FC
:10A6B0000020207003F0BEFB3B490870084600787C
:10A6C0003A490978884269D1374800783F281ED135
:10A6D000374800783F2812D03648008864280EDAC0
:10A6E0003448008805285DDD3F203149087000208E
:10A6F00030490880012020702F48007810BD3F208D
:10A700002B49087000202B4908803F20F6E7264897
:10A7100000782749097888420CD1264801880088AA
:10A72000401C244A108064293CD102202070224819
:10A730000078E3E71C4800781D4908701A48007843
:10A740003B2818D006DC1F2809D02F280BD037282B
:10A750001DD10CE03D2812D03E2818D113E0032073
:10A760001549087017E002201349087013E0012012
:10A77000114908700FE004200F4908700BE0052014
:10A780000D49087007E006200B49087003E03F20E0
:10A790000949087000BF00BF3F20AFE702480078BA
:10A7A000024908703F20A9E7330000203400002050
:10A7B00035000020360000203800002010B5FEF7DC
:10A7C0007FF810BD2DE9FE4F05460E461746984608
:10A7D000002484E004EB44104549085C01287CD146
:10A7E000012F79D14FF0000904EB44100844007A9E
:10A7F000010604EB44103E4A1044C07901EB0041CD
:10A8000004EB44101044807901EB002004EB441168
:10A810001144497900EB010904EB44101146084446
:10A820008078A84257D104EB44100844C078B04265
:10A8300051D104EB441111440879434600224946A2
:10A84000FEF726FBE8B304EB441029490844007BDB
:10A85000010604EB4410264A1044C07A01EB004183
:10A8600004EB44101044807A01EB002004EB441107
:10A870001144497A00EB010904EB441011460844E5
:10A88000143004EB44111144C97C04EB4412184BFE
:10A890001A44927CCDE90021029004EB44119C46BD
:10A8A000614491F80EC004EB44119A465144C97BAF
:10A8B0000CEB01218AB204EB44119C4661444B7CB1
:10A8C00002E008E009E007E004EB44116144487B42
:10A8D000494600F0D6F900E000BF601CC4B204484D
:10A8E00090F87206A0423FF775AF0120BDE8FE8FD9
:10A8F000000B002010B5074801780078401C054A7D
:10A900001070642904DB00201146087002F0D8FBA7
:10A9100010BD00002A0000202DE9F04107468846BE
:10A9200014461D460026284600F01AF8C5F104001A
:10A9300007FA00F60F20284100EA08000643360116
:10A940000648065504F01F01012088406111890066
:10A9500001F1E021C1F80001BDE8F08100E400E070
:10A960000146072323EA01021202054B18684FF63D
:10A97000FF031840034B18431043014B1860704706
:10A980000CED00E00000FA052DE9F84307460D46FE
:10A9900016464FF000092946384600F01DFE804655
:10A9A000FF2801D0002402E001244FF0FF082346D5
:10A9B0002A4641463846009603F038FB8146484611
:10A9C000BDE8F8832DE9F04104460D461746A61D63
:10A9D00004F11B0332462946204600F0FFF801200F
:10A9E000BDE8F081F8B504460D266078324901EBE8
:10A9F0000010C5680020009002F08CFE617888424B
:10AA000052DD00BFA1782868884242D12078022810
:10AA100008D02078042805D02078072802D0207894
:10AA2000092820D1A868E0B16078244901EBC00072
:10AA3000807918B9092603F025F829E0601CA96877
:10AA400088470646022E23D12868CF2800D9012640
:10AA5000E07800909DF80020211D601D03F042FD6C
:10AA600016E00A2614E02078052805D020780B2867
:10AA700002D020780D280AD1E86830B1621D6946FD
:10AA8000601CEB689847064602E00B2600E00C26A7
:10AA900009E005F11000296805460068814202D2EC
:10AAA0002868FF28AED900BF9DF80000401CE07068
:10AAB00026713046F8BD000048EF0008241600203B
:10AAC00070B504460120207026480068C4F80100D3
:10AAD00024484168E160D4F8060022494968884268
:10AAE00008D12048407A401CC1B21E4841722174EE
:10AAF0001D4D1CE06079012818DD267C1948407A3C
:10AB0000401CC1B2174841722174174D207D00F1DD
:10AB100015022146284603F023FB20B90022032119
:10AB20000220FEF745FC2674104D00E00F4D207DFD
:10AB300000F115022146284603F012FB80B90B48AC
:10AB4000854205D1002202210846FEF731FC07E0CC
:10AB50000548854204D1002203210220FEF728FC8B
:10AB600070BD00001415002040000020500000209F
:10AB70000146B1F1883F01D10220704703480068C7
:10AB8000884201D10320F8E70020F6E70400002006
:10AB9000F0B5BFB005460E4617466C461022294652
:10ABA000601C03F091FC0C48407A401CC1B20A487A
:10ABB000417221740422314604F1110003F084FC37
:10ABC000F27839460DF1150003F07EFC2046FFF7C0
:10ABD00077FF3FB0F0BD0000141500202DE9F843C9
:10ABE0000746884614461E4604F11103621C41467E
:10ABF0003846009600F0A4F80546012827D104F154
:10AC00001100FFF7EFFE0546032D20D002F052FAA7
:10AC1000FFF7D2FC607C022812D0607C05280FD0A0
:10AC2000607C072802D0607C0B2801D1012D07D061
:10AC3000607C092802D0607C0D2808D1012D06D047
:10AC4000607C00F006F860742046FFF739FFBDE82D
:10AC5000F8830146881E0C280FD2DFE800F0060EAC
:10AC60000E0A0E070E080E0B0E0C00BF00BF0320CD
:10AC7000704700BF00BF0620FAE700BF00BF0020FA
:10AC8000F6E72DE9F04786B004460D4616461F4606
:10AC9000DDE90F9ADDF838808DF80C40CDF80D50C5
:10ACA000ADF8116004208DF804008DF806808DF851
:10ACB00005708DF80790524601A902A8FFF768FFBA
:10ACC00006B0BDE8F087F0B591B005460E461446D3
:10ACD0001F4601208DF804008DF805508DF80660A0
:10ACE0008DF807402246394602A803F0EDFB201DEF
:10ACF000C2B201AB0021084600F002F811B0F0BD6D
:10AD0000F0B585B004460D4616461F4601208DF865
:10AD100008004FF08830CDF809000020ADF80D0094
:10AD20008DF800008DF801408DF802508DF8036019
:10AD30003A46694601A8FFF72BFF05B0F0BD0000B9
:10AD40002DE9F84F834616461C460A9F3068FE4997
:10AD50000968884208D03068FC49884204D0FA4823
:10AD60000068401C00287DD13046FDF7D1FF10B9A6
:10AD70000820BDE8F88F307901280BD1D6F80500FE
:10AD8000F1494968884201D00620F2E70020F049E5
:10AD900008600DE23079052807D1D6F8050020B902
:10ADA000D6F80B00EA49086002E24FF0000A00BF43
:10ADB000E848806840F00100E6498860E648006D98
:10ADC0000860E548406D0860E348406E0860E3486D
:10ADD00000680860E1480E300068086008460068B6
:10ADE0008246D6F80B00DA4908606946701DFDF707
:10ADF00057FF8146009800FA0AF00090D14400986D
:10AE000008B90720B5E73079022833D1E27839460E
:10AE1000F81C03F067FB0322611C384603F054FB67
:10AE2000E078C01C00F0FF0800206070A070E070A7
:10AE300001251AE00120A8400099084088B1727AE3
:10AE400009F0FF012846FFF7DDF850B1E178C81995
:10AE50004246394603F038FBE0783D54E078404400
:10AE6000E07000E0AAE1681CC5B202F053FCA84201
:10AE7000E0DC9CE1307903282AD100206070A070CA
:10AE8000E07001251FE00120A84000990840C0B1F2
:10AE9000E078C319727A09F0FF01284600F054FFE8
:10AEA000E078385C68B1E07817F80080E2783A44DE
:10AEB000511CE278D019424603F014FBE07840447C
:10AEC000E070681CC5B202F025FCA842DBDC6EE134
:10AED0003079042857D1607890BBE2783946F81C65
:10AEE00003F000FB0322611C384603F0EDFAE07822
:10AEF000C01C00F0FF0800206070A070E070012509
:10AF000019E00120A8400099084090B1B6F8090066
:10AF100092497E31098889B288420AD1E178C819FC
:10AF20004246394603F0D0FAE0783D54E078404498
:10AF3000E070681CC5B202F0EDFBA842E1DC36E12E
:10AF4000FFE702F0E7FB401E6178884201DA0E203D
:10AF50000FE76178012088400099084088B1B6F871
:10AF600009007E497E31098889B28842AFD07B488A
:10AF70007E30008880B21D2803D1B6F809001E2853
:10AF8000A5D00E20F5E63079062832D1E278394690
:10AF9000F81C03F0A7FA0322611C384603F094FA68
:10AFA000E078C01C00F0FF0800206070A070E07026
:10AFB000012519E00120A8400099084090B1B6F899
:10AFC0000900674901EBC501898888420AD1E17807
:10AFD000C8194246394603F077FAE0783D54E078E4
:10AFE0004044E070681CC5B202F094FBA842E1DC6A
:10AFF000DDE03079072832D1E2783946F81C03F0D9
:10B0000071FA0322611C384603F05EFAE078C01C36
:10B0100000F0FF0800206070A070E070012519E0CA
:10B020000120A8400099084090B1B6F809004C49A9
:10B0300001EBC501C97988420AD1E178C8194246B5
:10B04000394603F041FAE0783D54E0784044E0703E
:10B05000681CC5B202F05EFBA842E1DCA7E03079D3
:10B0600014285BD16078A0BBE2783946F81C03F065
:10B0700039FA0322611C384603F026FAE078C01C36
:10B0800000F0FF0800206070A070E07001251BE058
:10B09000334850F83500D6F80510884212D1B6F87A
:10B0A00009002E497E31098889B288420AD1E178A7
:10B0B000C8194246394603F007FAE0783D54E07873
:10B0C0004044E070681CC5B202F024FBA842DFDCFB
:10B0D0006DE0FFE702F01EFB401E6178884201DA56
:10B0E0000E2046E660781E4951F83000D6F805106B
:10B0F000884211D1B6F8090018497E31098889B211
:10B10000884254D015487E30008880B21D2803D173
:10B11000B6F809001E284AD00E202AE630791628F3
:10B1200043D1E2783946F81C03F0DCF90322611CB4
:10B13000384603F0C9F9E078C01C00F0FF08002091
:10B140006070A070E0700DE014150020424553546B
:10B1500004000020003002400000F81F82030008B5
:10B160002416002001251BE0154850F83500D6F8BC
:10B170000510884212D1B6F80900114901EBC5014A
:10B18000898888420AD1E178C8194246394603F0D5
:10B190009BF9E0783D54E0784044E070681CC5B20B
:10B1A00002F0B8FAA842DFDC01E00520E1E500BFCB
:10B1B000D6F80B00C6F805000120DAE50420D8E532
:10B1C0002416002030B5ADF2044D02F007FE01F068
:10B1D00071FF34480088402804D0802801D1324CC7
:10B1E00002E000BF314C00BF00BF01AA102130486F
:10B1F00000F0C6F8FEF748F9C5B24022294605A876
:10B2000003F08DF92B48059001990691FEF73CF962
:10B210000790FEF739F90890FDF7BEFC159005AAD6
:10B220004421204600F0B7F8C8B301AA4FF480616A
:10B2300004F5806000F0A4F8C2AA74211E4800F052
:10B240009FF8C298BD90FEF71FF9BE90FEF71CF95B
:10B25000C290FEF719F9C3904FF40061080400F0A2
:10B260006DF8E0B101AA4FF48061480400F093F852
:10B27000A8B11248406802900A480088402802D1CC
:10B280004FF4904001E04FF4B040039002AA08212F
:10B290000748001D00F07FF80DF2044D30BDFFE7B8
:10B2A0000020F9E74C00F81F00600008005000087B
:10B2B00000040008A53CC35A000300080414002041
:10B2C0000149C1F8040170476809002070B50546BE
:10B2D0000C46607810B1012826D115E02946601D82
:10B2E00002F0C6FEC0B2207000B922E0A0780128AA
:10B2F00002D11148007A00E00120E070D4F811007A
:10B30000FFF736FC207100BF22792178601DD4F848
:10B310000431984720B1E078401EC0B2E07010B10F
:10B320000120607005E000BF02F0A2FB0020607009
:10B3300000BF00BF70BD00001415002070B50546A9
:10B340000C464FF480700D490860FEF7C9F803E021
:10B35000A4F5807405F580752846FDF7CFFF012818
:10B3600002D1B4F5807FF3D8FEF7EEF8B4F5807F14
:10B3700001D8012070BD0020FCE70000183C02400D
:10B38000034604E018681060121D1B1D091F0029E8
:10B39000F8D1012070472DE9F04106460C461746CA
:10B3A00004F0030010B124F00304241DFEF798F804
:10B3B0003A4621463046FEF7A9F80546FEF7C4F89E
:10B3C0002846BDE8F08100002DE9F04FC1B080466D
:10B3D0000D46924605F0030010B125F003052D1D22
:10B3E000FEF77EF8B8F1006F02D33148804503D3F1
:10B3F000002041B0BDE8F08FA8F1006B4FEA1B269A
:10B400000BF0FF09C9F58074A54200D8ACB249E041
:10B410004FF0006101EB06206A46C914FFF7B0FF48
:10B42000002707E009EB07001DF8000000B103E06A
:10B43000781C87B2A742F5DB00BFA7421CDA4FF0A9
:10B44000006101EB0620FDF759FF4090002707E05F
:10B450001AF8070007EB09010DF80100781C87B204
:10B46000A742F5DB4FF0006101EB06206A46C914E4
:10B47000FEF74CF8409005E0524621464046FEF764
:10B4800045F84090A54200D10DE0761C4FF0000930
:10B49000A244A0442D1BB5F5807F02D94FF48074DF
:10B4A00000E0ACB2B4E700BFFEF74EF84098A0E76A
:10B4B000000006081CB5072269460A4802F01EFF74
:10B4C00058B1DDF803309DF802209DF801109DF879
:10B4D0000000FFF777F901201CBD00F033F80020D1
:10B4E000FAE70000700A00202DE9FC4105460C46F1
:10B4F00016461F46104800EBC500807918B9C72CC6
:10B5000015DDDD2C13DA8DF800508DF801408DF833
:10B510000260CDF8037007226946084802F04AFF2E
:10B52000074BC8220021032001F024FF01E002F0B4
:10B53000A9FABDE8FC81000024160020700A002052
:10B54000B5B4000810B580220249034802F064FE39
:10B5500010BD0000800A0020700A00200246002171
:10B560000EE001EB41100A4B185C38B101EB4110C1
:10B5700018444078904201D108467047481CC1B237
:10B58000034890F872068842EBDCFF20F5E70000E4
:10B59000000B002030B503460C46012B18D10021CA
:10B5A0000BE001EB41100B4D285C20B101EB411089
:10B5B000284440785054481CC1B2064890F872069E
:10B5C0008842EEDC034890F872062070012030BDFE
:10B5D000FF20FCE7000B002070B504460D46012C4F
:10B5E00003D12846FFF7BAFF70BDFF20FCE72DE925
:10B5F000F04107460E4614461D46FF2E07D12A4647
:10B6000021463846FFF7C6FF0120BDE8F0813146EC
:10B610003846FFF7E1FF2870FF2802D00120207094
:10B62000F3E70020F1E700002DE9F04104460D4664
:10B63000164604EB441009490844C07C1230C7B2D6
:10B6400004EB44100A461044811C3A46304602F08E
:10B650003BFF2F700120BDE8F0810000000B0020AF
:10B660002DE9F04104460D46174628E0B4F5004F99
:10B6700003D247F69C70854202D90020BDE8F081D4
:10B6800004F03F00C0F14000A84204D204F03F00A3
:10B69000C0F1400000E028460646F3B2A1B23A46A7
:10B6A000A020FEF707FF00B90BE03444AD1B374480
:10B6B0004FF0FF31A020FEF7E9FE00B901E0002DB8
:10B6C000D4D100BF0DB90120D8E7002211461046A1
:10B6D000FDF76EFE0020D1E72DE9F04104460D464E
:10B6E00016461F46012C06D13A4631462846FFF73A
:10B6F0009BFFBDE8F081FF20FBE72DE9F041044608
:10B700000D4616461F4629462046FFF765FF804630
:10B71000FF2808D03B46324641462046FFF7DCFF73
:10B720000120BDE8F0810020FBE700002DE9F04F8B
:10B7300091B081464FF0000A4FF0010BBCE050463B
:10B74000411C01F0FF0A052806DD052001F070FA12
:10B75000002062490870B7E00021032000F0F0F9F2
:10B7600004460021042000F0EBF9064606F08000B4
:10B7700028B10021262000F0E3F95949087004F0AF
:10B78000010018B10020554908709DE004F0100038
:10B79000E0B100250AE000217F2000F0D1F9074642
:10B7A0003946484602F0E8FD681CC5B2322DF2DB8E
:10B7B0004A480078CD2803DD00204849087083E01E
:10B7C0004648007832304549087000BF04F0020056
:10B7D000002871D043480078C8B900214B2000F000
:10B7E000AFF904460EE000217F2000F0A9F90546DC
:10B7F0002946484602F0C0FD834638480078401C80
:10B800003649087035480078A042ECDB49E00DF17C
:10B810000A0505F1120700214B2000F091F90446BA
:10B8200032283DDA00202D4908700CE000217F20ED
:10B8300000F086F901A9294A12788854274800782F
:10B84000401C2649087025480078A042EEDBE87CC1
:10B85000B2280FD1F878BB280CD1FEF7FFF9E968C0
:10B86000884207D13879642804DA1D48017838798C
:10B870001D4A1154FEF7F2F9E96888420AD0FEF732
:10B880002BFA8046184810F80800401C164901F8A9
:10B89000080000BF224601A9484602F08BFD8346FE
:10B8A00000BF00200D490870BBF1000F04D1002239
:10B8B00003210220FDF77CFD4FF480610120FDF79C
:10B8C000C9FE00283FF43BAF00BF0448007808B928
:10B8D00000F0BEFA11B0BDE8F08F000013000020A8
:10B8E0001000002012000020C015002010B50446F2
:10B8F0000F480068B0F15A3F01D0122010BD0D482A
:10B90000D0F804010C4988420AD10C48FFF7D8FC52
:10B910000B4B4FF496620021084601F02BFD04E02A
:10B920000548FFF7CDFC01F08DF90120E6E70000A6
:10B93000240000206809002091D60008B1CF00083B
:10B9400045B9000810B5032002F0D0F80148FFF710
:10B95000B7FC10BD91D6000801200149087070475E
:10B96000110000202DE9F04106460C4690460025C6
:10B9700001F068F900F096FA2146BE2000F0E0F8E8
:10B980001DE04FF4805503E0142002F039FC6D1ED9
:10B990000021032000F0D4F800F0200008B9002DA9
:10B9A000F2D1002707E016F8011BFF2000F0C8F8CD
:10B9B000601EC4B27F1C322F01D2002CF3D1002CA8
:10B9C000DFD10921872000F0BBF84FF4C87002F0E6
:10B9D00017FC4FF4805506E0681E051E03D10420B5
:10B9E00001F026F908E00021032000F0A9F800F09A
:10B9F000040008B9002DEFD100BF01F023F900F0D9
:10BA000027FABDE8F081000010B52248006840F434
:10BA10008040204908600846006820F480400860A3
:10BA20001C480C30006840F480401A490C31086012
:10BA30001848001D006840F002001649091D086002
:10BA400000F02CF814480088134908800846008844
:10BA500040F4007008800846008840F48070088038
:10BA60000846008840F004000880084600880880E6
:10BA70000846008840F008000880084600880880D2
:10BA80000846008840F040000880FF2000F014F8CD
:10BA900010BD0000183802400038004010B5852263
:10BAA0004FF460410120FDF789FD05224FF460410C
:10BAB0000120FDF753FD10BD0146002208E01046AD
:10BAC000531C9AB24FF6FE73984201DB0020704778
:10BAD0000F48008800F002000028F0D00C48001D3C
:10BAE0000180002208E01046531C9AB24FF6FE7304
:10BAF000984201DB0020EAE70548008800F00100D9
:10BB00000028F0D00248001D0088C0B2DFE7000026
:10BB10000838004000F007000849098821F0380182
:10BB2000064A11801146098841EAC0011180114678
:10BB3000098841F040011180704700000038004042
:10BB400070B505460C464FF480510120FDF78CFD81
:10BB50002846FFF7B1FF2046FFF7AEFF06464FF439
:10BB600080510120FDF78AFD304670BD38B504468E
:10BB70002546E11704EB5171C91001F53F606A4693
:10BB80000121FFF76DFD2046E11704EB5171C9104B
:10BB9000A4EBC102012191409DF800208A4300924C
:10BBA0002546E11704EB5171C91001F53F606A4663
:10BBB000012102F095F938BD10B5002220214FF483
:10BBC0003F6002F0C9F910BD70B505460C462078FB
:10BBD000411C2246284602F083F970BD70B588B03A
:10BBE00006460D466A4620214FF43F60FFF738FDB8
:10BBF000304600F04BF804460020287023E06846E9
:10BC000000EBD400007804F00702012191400840C5
:10BC1000C0B92C70684600EBD400007804F007022D
:10BC2000012191400843694601EBD401087069463F
:10BC300001EBD4024FF43F6101EBD400012102F08B
:10BC40004FF902E0641CFF2CD9D900BF08B070BDC9
:10BC500001464FF44060802902DA00EBC10014E095
:10BC600000F58060A1F18002D1B2402902DA00EB38
:10BC700001100AE000F58060A1F14002D1B2402934
:10BC800002DA00EB411000E000BF704701460829CE
:10BC900001DA01207047102901DA8020FAE7202913
:10BCA00001DAC020F6E74FF48070F3E730B595B0C5
:10BCB000054605EB8501090101F5806001AA5021C7
:10BCC000FFF7CEFC002408E001A8005D18B101A92F
:10BCD000085DFFF74BFF601CC4B2502CF4DB05EB92
:10BCE0008501090101F580600022502102F034F93C
:10BCF00015B030BDF8B504460D46164604EB840178
:10BD0000090101F58061102202FB0511012202FBED
:10BD100006106A460121FFF7A3FC9DF8000090B1D0
:10BD200004EB8401090101F58061102202FB051179
:10BD3000012202FB06100022012102F00DF99DF8FC
:10BD40000000FFF713FFF8BD2DE9F84305460E4646
:10BD500017461C4605EB8501090101F5806110229B
:10BD600002FB0611012202FB07106A460121FFF7C0
:10BD700077FC9DF8000048B19DF80000FFF768FFD0
:10BD8000804622462021FFF76BFC01E00020207056
:10BD9000BDE8F88310B501240AE004EB8401090131
:10BDA00001F580600022502102F0D6F8601CC4B278
:10BDB00001F0B0FCA042F0DCFFF7FEFE10BD2DE963
:10BDC000F84305460E4617461C4605EB850109015A
:10BDD00001F58061102202FB0611012202FB07100F
:10BDE0006A460121FFF73CFC2078FFF74FFF9DF8E2
:10BDF0000010884205D99DF80000FFF7B7FE00202B
:10BE000000909DF80000C0B920786946FFF7E6FE73
:10BE10009DF8000010B91120BDE8F88305EB8501FD
:10BE2000090101F58061102202FB0611012202FBCB
:10BE300007106A46012102F053F89DF80000FFF751
:10BE400007FF80462146FFF7BFFE0120E4E7000020
:10BE500010B505218720FFF773FE02218E20FFF722
:10BE60006FFE02218820FFF76BFE00218820FFF77C
:10BE700067FE13218520FFF763FE80218620FFF7F0
:10BE80005FFE00210320FFF75BFE00210420FFF787
:10BE900057FE0348006840F480600149086010BD07
:10BEA0000004014010B503218820FFF749FE082156
:10BEB0008820FFF745FE01218E20FFF741FE10BDCF
:10BEC00008B1012100E00021014A11707047000013
:10BED000120000200CB50020019000903E48006840
:10BEE00040F480303C49086000BF3B48006800F4E3
:10BEF000003000900198401C0190009818B90198FA
:10BF0000B0F5A04FF1D13448006800F4003010B112
:10BF10000120009001E0002000900098012859D1F4
:10BF20002E48006840F004002C490860084600686C
:10BF300040F0020008600846006840F00100086018
:10BF400025482430006840F080502349243108609F
:10BF5000C8142349086000BF2148406800F0100061
:10BF60000028F9D11C48083000681B4908310860D6
:10BF700008460068086008460068086008460068CF
:10BF800020F47D0008600846006840F41100086055
:10BF90001148006840F080700F49086000BF0E48EB
:10BFA000006800F000700028F9D00B4808300068E5
:10BFB00020F003000849083108600846006840F096
:10BFC0000300086000BF04480830006800F00C005F
:10BFD0000C28F8D10CBD000000380240003C0240A3
:10BFE0000070004010B50446A078012801D00F2051
:10BFF00010BDE078492802DBE0785D2801DD0E20E5
:10C00000F6E7FCF7C9FDE17888420CD0E07801F052
:10C0100023FC08B91220EBE7044B4FF448720021CF
:10C02000084601F0A7F90120E2E7000091CC0008E2
:10C0300010B50446E078052801DCE07808B90F2047
:10C0400010BDE078054908720831012001F0CAF8F6
:10C0500008B91020F4E70120F2E7000014150020D1
:10C0600070B50446A078022801DCA07808B90F203A
:10C0700070BDE078B8B9012510E02079164901EBD0
:10C08000C501C871144800EBC500C11D012001F0B5
:10C0900081FB08B91020EBE7681CC5B201F03AFB40
:10C0A000A842EADC16E001F035FBE178884201DCC9
:10C0B0000E20DDE72079E178074A02EBC101C87163
:10C0C000E07802EBC000C11D012001F063FB08B95C
:10C0D0001020CDE70120CBE72416002010B5044640
:10C0E000A07808B90F2010BDE07818B90120FCF73E
:10C0F000C7FF05E0E078FCF7DDFF08B91720F2E79D
:10C100000120F0E710B50446A07810B9FDF72FF92B
:10C1100008E0A078052805D1E1788800221D0421D7
:10C1200001F0DEFE012010BD2DE9F8430446002792
:10C13000FCF70CFF0746A0783844A0706946201D24
:10C14000FCF7AEFD064646EA0700C6B2A078032813
:10C1500002DA0F20BDE8F88301F0DCFAE178491C2F
:10C160003944C9B2884205DB207A401C3844C0B249
:10C17000102801DD0E20EDE7A07A012817D1E07824
:10C1800028B1E078FF2802D0207AFF2801D10E20C4
:10C19000E0E7E178012088400099084028B1227A40
:10C1A000E0783146FDF778FF72E00720D2E7A07A09
:10C1B00000286DD1E078FF283FD1C6B9207AFF284A
:10C1C00002D1FDF75BFF63E001250BE00120A840F1
:10C1D0000099084020B1227A31462846FDF7A2FE98
:10C1E000681CC5B201F096FAA842EFDC50E00125C8
:10C1F0001EE00120A84000990840B8B1207AFF282D
:10C200000FD14FF0000808E0424631462846FDF7BE
:10C2100089FE08F1010000F0FF08B8F1100FF3DB10
:10C2200004E0227A31462846FDF77CFE681CC5B240
:10C2300001F070FAA842DCDC2AE0E17801208840B5
:10C240000099084010B366B9207AFF2803D1E0783E
:10C25000FDF74AFE1CE0227AE0783146FDF762FEE7
:10C2600016E0207AFF280BD1002506E0E0782A4668
:10C270003146FDF757FE681CC5B2102DF6DB07E00E
:10C28000227AE0783146FDF74DFE01E0072061E7B4
:10C2900001205FE710B5044618480078F22821D144
:10C2A000E079217A4840E071207AE17948402072B3
:10C2B000E079217A4840E0710722115BD4F803004D
:10C2C00001F0B8FA012813D10D4801F001FB78B153
:10C2D000F3200A490870FEF775FF48B101F086FDAA
:10C2E000012010BD05480078F32801D10120F8E7AE
:10C2F0000020024908701220F3E70000000000202F
:10C300000004000810B5044601F068FD0E480078EE
:10C31000F1280DD1E0780D490978884206D1A2783C
:10C32000D21ED1B2A088A21D01F012FB012010BDC7
:10C3300005480078F22801D10120F8E700200249E1
:10C3400008700320F3E70000000000200100002037
:10C350001FB504462C4904F109020868611D01F06B
:10C36000ABFA00284DD0B4F8030000900D20005B1C
:10C370000390206901902448001D0068B0F1082F47
:10C380001FD155202149087021480088402808D035
:10C39000802809D0B0F5807F09D0B0F5007F0CD19E
:10C3A00008E01C4802900BE01B48029008E01B4884
:10C3B000029005E01A48029002E01648029000BF81
:10C3C00005E0AA20114908704FF008200290E07B98
:10C3D000694601F0FDFA98B1F12012490870072072
:10C3E000A0700948001F0088A4F8030006480168EF
:10C3F000C4F80510054801786172022004B010BD30
:10C4000000BF0E20FAE7000004040008010000202D
:10C410004C00F81F0084000800C4000800980108C0
:10C42000002803080000002070B50446A07808B971
:10C430000F2070BDE078022804D003280ED0052814
:10C440001FD114E02079611D01F0C1FD0546012DC9
:10C4500002D1A0700220ECE72846EAE76179207952
:10C46000FCF777FE012800D1E3E71520E1E76179C9
:10C470002079A21DFEF788FA012800D1D9E71620FD
:10C48000D7E700BF00BF0E20D3E7F0B585B0044664
:10C49000A07800282ADDA778E51C21E0A8781028DC
:10C4A00002DD0F2005B0F0BD02208DF80000A87855
:10C4B000C21C29460DF1010002F006F86846FEF79D
:10C4C00091FA0646012E08D0BDF80100A4F8030039
:10C4D00066710320A0700220E4E7A878C01C054420
:10C4E000E01C3844A842D9D80120DBE70F20D9E767
:10C4F00070B50546A878192806DCA878052190FBB8
:10C50000F1F201FB120008B10F2070BDA8780521DF
:10C5100090FBF1F0C6B200240EE004EB8401E81CAD
:10C52000405C28B104EB8401E81C405C052801DD77
:10C530000E20EAE7601CC4B2B442EEDB00240FE038
:10C5400004EB8400401CE91C0A5804EB8401E81C3D
:10C55000405C401E084901EB80000260601CC4B2D0
:10C56000B442EDDB0449142000F03CFE08B9102071
:10C57000CBE70120C9E700001E15002010B50446D6
:10C58000E07808B1012000E00020054988771E31DD
:10C59000012000F027FE08B9102010BD0120FCE7A3
:10C5A0001415002010B586B00446142101A8FCF72C
:10C5B00021F84FF0FF300090A078082802DA0F2011
:10C5C00006B010BD3B4800884AF6552188422DD15F
:10C5D0003848801C0068401C40B33648801C006806
:10C5E00020B33448801C0068B0F1443F1ED031486D
:10C5F000801C0068B0F1883F18D02E48801C00686D
:10C600002D49884212D02B48801C00688906D1F839
:10C610008613C943884209D14FF00060D0F88203E5
:10C62000D4F80310884209D10120C9E72348416E9C
:10C6300007200059814201D00E20C1E72048049014
:10C6400054F8030F1F49896841F001011D4A9160A8
:10C650001A49096D11601949496D11601749496EF0
:10C66000116011460860096805914AF65520ADF839
:10C6700004002068CDF8060054F80309C043CDF843
:10C680000A0001AA14210B48FEF79EFE80B1D4F8DF
:10C69000030000906A460421442001F021FC0A4B6B
:10C6A0004FF47A720021084600F064FE012087E70B
:10C6B000022085E780030008424553540000F81F1C
:10C6C000A542BD5A003002406DA100082DE9F84393
:10C6D00004460027FCF73AFC0746A0783841A070D2
:10C6E0006946201DFCF7DCFA0646F019C6B2A078B0
:10C6F000032802DA0F20BDE8F88301F00BF80146A9
:10C70000E078401C3844C0B2814205DB207A401CEE
:10C710003844C0B2102801DD0E20ECE7A07A0128D1
:10C7200028D1E07828B1E078FF2802D0207AFF28CD
:10C7300001D10E20DFE7E178012088400099084010
:10C74000B0B1A0780938E072E07A20280EDA207AB9
:10C75000012802D1A0780938E072227AE07804F149
:10C760000B033146FFF72BFBC0B2C4E70F20C2E733
:10C770000720C0E7A07A00286DD1E078FF283FD1DC
:10C78000C6B9207AFF2802D1FFF704FB63E0012538
:10C790000BE00120A8400099084020B1227A3146E0
:10C7A0002846FFF7A7FA681CC5B200F0B3FFA842FD
:10C7B000EFDC50E001251EE00120A8400099084070
:10C7C000B8B1207AFF280FD14FF0000808E0E078D8
:10C7D00042463146FFF78EFA08F1010000F0FF08EB
:10C7E000B8F1100FF3DB04E0227A31462846FFF758
:10C7F00081FA681CC5B200F08DFFA842DCDC2AE09B
:10C80000E178012088400099084010B366B9207A89
:10C81000FF2803D1E078FFF749FA1CE0227AE0789C
:10C820003146FFF767FA16E0207AFF280BD1002582
:10C8300006E0E0782A463146FFF75CFA681CC5B28C
:10C84000102DF6DB07E0227AE0783146FFF752FA46
:10C8500001E007204FE701204DE7000010B5044636
:10C860000F4B41F288320021084600F083FDE0784A
:10C87000FF2812D10B48007802280ED1084800F09A
:10C88000EDFDFCF700FB084B4FF47A7200210846DF
:10C8900000F070FD002003490870012010BD000069
:10C8A000878E00080900002079D0000870B5044682
:10C8B000002517480078012801D0122070BD022001
:10C8C00013490870D4F80300124908600720005982
:10C8D0004860E07A0872217B0E4841720D20015BAE
:10C8E0000C4841810120FFF7EBFA0B4B41F28832F3
:10C8F0000021084600F03EFDFCF702FF0546054812
:10C90000007A421C0021284601F009FE0120D5E7EB
:10C9100009000020B4120020878E000810B50446DC
:10C920001048007808B1122010BD01200D49087090
:10C93000D4F803000C490860072000594860E07AE9
:10C940000872217B084841720D20015B0648418135
:10C95000064B4FF47A720021084600F00BFD0120CF
:10C96000E2E7000009000020B412002051D00008C6
:10C9700010B50446002003490870034800F06EFD1E
:10C98000012010BD09000020F5CF000870B5044655
:10C99000A078052801DCA07808B90F2070BDE078E8
:10C9A000B8B9012510E02079164901EBC50188715D
:10C9B000144800EBC500811D012000F0EBFE08B912
:10C9C0001020EBE7681CC5B200F0A4FEA842EADC28
:10C9D00016E000F09FFEE178884201DC0E20DDE7E2
:10C9E0002079E178074A02EBC1018871E07802EB17
:10C9F000C000811D012000F0CDFE08B91020CDE758
:10CA00000120CBE72416002070B50446A078052845
:10CA100001DCA07808B90F2070BDE078A8B9012525
:10CA20000EE01549606841F83500084600EBC50185
:10CA3000042000F0AFFE08B91020EDE7681CC5B275
:10CA400000F068FEA842ECDC14E000F063FEE17840
:10CA5000884201DC0E20DFE7E178074A606842F88F
:10CA60003100E07802EBC001042000F093FE08B929
:10CA70001020D1E70120CFE72416002070B504462E
:10CA800000F048FE0546A078012801D00F2070BDB7
:10CA9000E078A84201D30E20F9E7E07888B900F0E9
:10CAA00039FE05460AE06D1E104800EB051080684F
:10CAB00020B10E4901EB051188688047002DF2D1A5
:10CAC0000BE0E078094901EB0010806828B1E178BB
:10CAD000064A02EB011188688047054B3222C821C3
:10CAE000012000F047FC0120D1E7000048EF0008DA
:10CAF000BDA5000870B50446A078032801DCA07825
:10CB000008B90F2070BDE078B8B9012510E0A08801
:10CB1000164901EBC5018880144800EBC500011DD2
:10CB2000022000F037FE08B91020EBE7681CC5B200
:10CB300000F0F0FDA842EADC16E000F0EBFDE17841
:10CB4000884201DC0E20DDE7A088E178074A02EB8D
:10CB5000C1018880E07802EBC000011D022000F0D6
:10CB600019FE08B91020CDE70120CBE724160020DC
:10CB700010B50446A078012801DD0F2010BDA07873
:10CB8000012805D1E07818B9022001F009F91CE06C
:10CB9000A07818B9012001F003F916E000F0BAFD01
:10CBA000E17888420FDDE07800F006FEE07800F0E2
:10CBB000C1FDE078FDF798F9E078FFF777F8E078C5
:10CBC000FCF778FA01E00E20D8E70120D6E7000054
:10CBD00010B50446A078042801DCA07808B90F201D
:10CBE00010BDD4F8030005490860042000F0FAFAEB
:10CBF00008B91020F4E70120F2E700001415002026
:10CC000010B5442220210120FCF7D8FC202101206E
:10CC1000FCF72AFD10BD10B520210120FCF72EFDE8
:10CC200010BD10B520210120FCF71EFD10BD000035
:10CC300010B50446024A21460220FCF7B9FB10BD9C
:10CC400091CC000810B51148006820F480600F49AD
:10CC5000086000218E20FEF773FF01218720FEF778
:10CC60006FFF00218520FEF76BFF00218620FEF775
:10CC700067FF00210320FEF763FF00210420FEF779
:10CC80005FFF022001F0AEFA10BD00000004014079
:10CC900010B500F053F94FF480510120FCF7EEFC81
:10CCA0004FF400610120FCF7E9FC022001F09AFA40
:10CCB0004FF400610120FCF7D7FC322001F092FA1A
:10CCC00000210320FEF73CFF00210420FEF738FF7F
:10CCD00080218720FEF734FF022001F083FA002133
:10CCE0008720FEF72DFF00218520FEF729FF002178
:10CCF0008620FEF725FF00210320FEF721FF0021FB
:10CD00000420FEF71DFF79218920FEF719FF062177
:10CD10008A20FEF715FFEA218B20FEF711FFEA219A
:10CD20008C20FEF70DFFFC218D20FEF709FF00216E
:10CD30008E20FEF705FF7F4801789C20FEF700FF5C
:10CD40007C4841789D20FEF7FBFE7A4881789E2042
:10CD5000FEF7F6FE7748C1789F20FEF7F1FE754892
:10CD60000179A020FEF7ECFE72484179A120FEF780
:10CD7000E7FE70488179A220FEF7E2FE6D48C17996
:10CD8000A320FEF7DDFE6B48017AA420FEF7D8FE53
:10CD90006848417AA520FEF7D3FE6648817AAA202A
:10CDA000FEF7CEFEAC21B020FEF7CAFE0021B22075
:10CDB000FEF7C6FE0221B320FEF7C2FE1021B4200A
:10CDC000FEF7BEFE2821B520FEF7BAFE2D21B620C3
:10CDD000FEF7B6FED421B720FEF7B2FE0021B82040
:10CDE000FEF7AEFE0021B920FEF7AAFE4221BA20CE
:10CDF000FEF7A6FE4521BB20FEF7A2FE5321BC2074
:10CE0000FEF79EFE5421BD20FEF79AFE4221BF2070
:10CE1000FEF796FE4521C020FEF792FE5321C12069
:10CE2000FEF78EFE5421C220FEF78AFEFF21C320AA
:10CE3000FEF786FEFF21C420FEF782FEFF21C520FB
:10CE4000FEF77EFEFF21C620FEF77AFE3948C17A42
:10CE5000D820FEF775FE3748017BE920FEF770FE0B
:10CE60003448417BEE20FEF76BFE3248817BEF2099
:10CE7000FEF766FE2F48C17BF020FEF761FE2D48CD
:10CE8000017CF120FEF75CFE2A48417CF220FEF78F
:10CE900057FE5221F520FEF753FEFBF77DFE493881
:10CEA00000EB80004006040E2146F920FEF748FE04
:10CEB0002048C17CF620FEF743FE1E48017DF72086
:10CEC000FEF73EFE0021F320FEF73AFE0021F4209B
:10CED000FEF736FE0A21FA20FEF732FE0721ED208A
:10CEE000FEF72EFE4E21A720FEF72AFE1E21FC2073
:10CEF000FEF726FE0C21FD20FEF722FE3221FE2049
:10CF0000FEF71EFE01220A211046FCF773F90223E8
:10CF1000282200211846FDF7FFFC0748006820F48E
:10CF2000806005490860FFF78DFEFEF791FFFEF770
:10CF300013FD10BD14EF00080004014010B51B489C
:10CF4000006820F48060194908604422C914012057
:10CF5000FCF734FB44224FF480510120FCF72EFBF8
:10CF600000224FF480610120FCF728FB00220221FF
:10CF70000120FCF723FB4FF480610120FCF77EFBCE
:10CF800002210120FCF77AFB44224FF4807100203B
:10CF9000FCF714FB4FF480710020FCF76FFBFEF7E9
:10CFA00033FD0420FEF7B6FD10BD00000004014073
:10CFB00070B505460E4614460C480078012813D17A
:10CFC0002046FBF71BFE78B1002231462846FEF7CB
:10CFD000C9FC002005490870054BC82200210846FD
:10CFE00000F0C8F9012070BD0020FCE7110000200E
:10CFF00059B9000810B5C4B01348447A00F05AF883
:10D00000BB208DF81000114800788DF811000F48F2
:10D010000078401C0D4908700B48007A0978884256
:10D0200003DAFF208DF81000022404A8B521CDE911
:10D030000014029004480123002201681846FDF7FD
:10D0400020FE44B010BD0000B41200200A000020F1
:10D0500010B500200549087005484289007A811CF6
:10D06000044B012000F086F910BD00000A000020EA
:10D07000B4120020F5CF00083EB50025FCF740FBB8
:10D080000546002410E00A48007A401CC0B2B621D0
:10D09000CDE90105009106480123002201681846E8
:10D0A000FDF7EFFD601CC4B2022CECDB3EBD0000BE
:10D0B000B412002000200149087070472A000020A7
:10D0C00010B500204FF0E0210861282000F01F0279
:10D0D00001219140214A430942F8231000BFFBF788
:10D0E00057FA4FF480710020FCF7BEFA1C48008804
:10D0F00020F040001A4908801A48006820F4804057
:10D1000018490860081F006820F48040091F086063
:10D1100014481438006840F00100124914390860BE
:10D120001048006840F080500E4908600E480068C2
:10D1300040F004000C4908600C48006840F0020010
:10D140000A4908600846006840F004000860084684
:10D15000406840F48070486030BF10BD80E100E05E
:10D16000003800402438024010ED00E0007000401C
:10D1700010B5044600F0E2FD00F0D4FCFDF71EFB04
:10D18000FEF7E0F9002207210220FCF711F9044B19
:10D190004FF47A720021084600F0ECF810BD000050
:10D1A00019DB000810B54FF0FF300D490860002072
:10D1B000FDF712F80A494860022008720020487200
:10D1C0001422002106480A3001F0A9F90020044980
:10D1D00088770A461F21402000F082FE10BD000023
:10D1E0001415002070B505460C460449611A01F17A
:10D1F00040002246294600F073FE70BD1415002041
:10D2000010B5202000F01EF8FCF7FAF8FDF74DF8F5
:10D21000FFF73EFD10BD000010B508480068084942
:10D22000B0FBF1F201FB12000449086008460068F7
:10D23000401C086000F078F910BD00001C000020C0
:10D240000084D7174FF0E021096921F004014FF065
:10D25000E02211614FF47A714143C9085161002104
:10D260009161032111610021014A116070470000A2
:10D270001C00002010B51548006840F48070134968
:10D280000860124808300068114908400F49083109
:10D2900008600E4800680F4908400C4908600846BD
:10D2A000006820F48020086008480830006820F4F6
:10D2B0007D000649083108600020091D0860FEF75E
:10D2C00009FE054800680549086010BD00380240A5
:10D2D0000CC0FF88FEFFFEEE0804000808ED00E029
:10D2E00010B5012211030020FCF768F94FF48051BA
:10D2F0000020FCF7AFF9B8B90A2000F073FF4FF433
:10D3000080510020FCF7A6F970B94FF05A30094956
:10D3100008604FF41651482000F068F90648FDF700
:10D32000CFFFFFF78FFC10BD00200249086000BF4F
:10D33000F9E700002400002091D6000830B503462C
:10D340000C46194609E00846491C064D05EB00103D
:10D35000C068904201D1C8B230BDA142F3D30020D1
:10D36000FAE70000C412002000200149086070475D
:10D37000C01200202DE9F0410746884615461E469A
:10D3800000BF35480088344949880844142802DB26
:10D390000020BDE8F08100BF2F4800882E4A528847
:10D3A000811832460020FFF7C9FF00BB2A4B5B887B
:10D3B0001A01294BB3F800C01B1D03EB0C111B1FF6
:10D3C0001B885B1CDFF890C00CF1040C0CEB031005
:10D3D00001F088F8204804880088401C1E49088015
:10D3E00000211D48001D00EB041001700CE03046C8
:10D3F00000F0B2F818480088174A5288811832465F
:10D400000020FFF79BFF441E1348001D00EB041093
:10D4100047701148001D00EB0410C6604FB905B9F4
:10D420006D1C4FF0010800210B48001D00EB04109B
:10D4300001700948001D00EB0410A0F802800648A6
:10D44000001D00EB0410456000210348001D00EBA7
:10D450000410816001209CE7C012002070B50546D1
:10D4600016480088154A528881182A460020FFF77E
:10D4700065FF044604B3114B1B88104E7688334475
:10D480001B1B1A010D4B1B1D03EB0411631E0B4EDE
:10D49000361D06EB031001F025F8301F0088A0426E
:10D4A00005D2301F4088401E311F488004E00348E9
:10D4B0000088401E0149088070BD0000C012002095
:10D4C00070B5184C25E0207810B3E5680020207076
:10D4D000607830B1012807D002280ED0032814D17B
:10D4E0000DE00120207000BF6188481E608019B9DE
:10D4F0002846FFF7B3FF09E000BFA84706E0A847AA
:10D5000010B92846FFF7AAFF00E000BF00BF00BF28
:10D5100010340448001F0188001D00EB0110A042D8
:10D52000D1D870BDC41200200A480AE08168491CA5
:10D5300081604268914203D3002181600121017022
:10D5400010300449091F0A88091D01EB02118142AC
:10D55000ECD87047C41200207FB505461F4A1288D8
:10D560001E4B5B88D1181D4A10882A46FFF7E6FE3D
:10D57000044694B319480088201A012824D9601E53
:10D58000164A121D02EB00111022684600F09CFFA3
:10D59000124B1B88E31A1A01104B1E881B1D03EB4C
:10D5A00006111B1F1B885B1C0C4E361D06EB03105F
:10D5B00000F098FF311F0A88091D01EB02101022AC
:10D5C000694600F081FF00BF04480088401C034901
:10D5D000088008464088401E48807FBDC012002059
:10D5E00001480068704700001C00002070B5054627
:10D5F0000C462448006840F48040224908600846F0
:10D60000006820F4804008601E480C30006840F03C
:10D6100004001C490C3108600846006840F4804052
:10D6200008608C2249150020FBF7C8FF8C224FF4BC
:10D6300080610020FBF7C2FF07224FF4C061002089
:10D64000FBF78CFF10486843B0FBF4F00F490880EB
:10D65000081D008842F20C0108430C49091D08808E
:10D660000846008840F4807008800846008840F032
:10D67000200008800223252203210846FDF74CF9EB
:10D6800070BD00001438024040420F0008380140CD
:10D6900070B504460D46164609E014F8010B00F07B
:10D6A0000DF820B94FF416514820FFF79FFF281EB0
:10D6B000A5F10101CDB2F0D1012070BD02460021DB
:10D6C00000E0491C0948008800F0400018B944F601
:10D6D00020608142F5D344F62060814204D20348A1
:10D6E000001D0280012070470020FCE70038014047
:10D6F00010B50648008800F0200030B10348001D36
:10D700000088C1B2024800F037FE10BD0038014069
:10D71000400000200220704710B5002404E020469D
:10D7200000F008F8601CC4B2FFF7F4FFA042F6DC7A
:10D7300010BD000010B50446054800EB0410406819
:10D7400028B1034800EB041041682046884710BD0B
:10D7500048EF000870B504460D4607E005EBC4022B
:10D76000210101F180000821FDF77AFF201EA4F1BC
:10D770000101CCB2F2D170BD10B5002404E0204606
:10D7800000F01AF8601CC4B2FFF7C4FFA042F6DC38
:10D7900010BD000070B505460C460648261AF10873
:10D7A0000901803106F0070288182246294600F058
:10D7B00097FB70BD2416002010B504464FF0FF30D3
:10D7C0000D4941F83400002001EBC401888001209C
:10D7D000094901EBC40188710020074901EBC4012C
:10D7E000C871054901EBC402210101F18000082143
:10D7F00000F076FB10BD00002416002010B50224B6
:10D800000A490220FFF7A6FF0DE0601EC0B20446E1
:10D81000074901EB0010006828B1084600EB04102E
:10D82000016820468847002CEFD110BD2416002047
:10D8300048EF000870B505460C46A9B2054A906845
:10D84000FBF7F8FA201A84B20CB9012070BD002051
:10D85000FCE700000414002038B505460095144C80
:10D860000BE0FBF711FE2168884205D16A460421CE
:10D870002046FDF790FD38BD241D0D48E030844260
:10D88000EFD30C4A10210A482038FDF779FD4FF4F8
:10D89000807107482038FDF751FD064A10210448E1
:10D8A0002038FDF778FD2846FFF7D6FFE3E70000B4
:10D8B000200400080414002003460868984202D897
:10D8C0001068984201D2002070470120FCE7000058
:10D8D00070B50446FBF760F905464FF480712046A9
:10D8E000FDF72CFD044A10212046FDF754FD284683
:10D8F000FFF7B2FF70BD00000414002030B50246EF
:10D900000B4600210020107013E048090E4C54F81B
:10D91000200001F01F050124AC40204040B923F84D
:10D92000021B1078801C10701078642800DD04E061
:10D93000491C0648C0688842E7D800BF107808B97B
:10D94000012030BD0020FCE7141400200414002046
:10D950002DE9F04104460D4617461948C068A0421B
:10D9600001D3C82D01DDBDE8F0816009154951F8EA
:10D97000200004F01F02012191400840F0B9104836
:10D9800080681149097804FB01063A462946304669
:10D99000FDF701FD68B160090A4951F8200004F063
:10D9A0001F020121914008436109064A42F8210003
:10D9B00004E006480078401C0449087000BFD2E724
:10D9C00004140020141400200B0000200C00002080
:10D9D0002DE9F04106460D4606F0030010B1002087
:10D9E000BDE8F0811E480088402808D0802809D072
:10D9F000B0F5807F09D0B0F5007F0CD108E04FF47E
:10DA0000F8440AE04FF43C4407E04FF4C83404E023
:10DA10004FF4483401E0002400BF00BFE8687043C1
:10DA2000A04201D90020DBE70E4806700E492868A5
:10DA3000086068684860A8688860E868C86000276F
:10DA400005E00020094941F82700781CC7B2402FA3
:10DA5000F7D3054988682146FDF770FCC0E7000050
:10DA60004C00F81F0B0000200414002014140020A8
:10DA70000248006802490860704700001C0000204E
:10DA80002000002010B5FFF7ABFD4FF49671B0FBFE
:10DA9000F1F201FB120000EB800040F6C41101EB33
:10DAA0004004034B224600210846FFF763FC10BDEB
:10DAB000B5DA000800B5B3B000208DF8060002AA60
:10DAC000911E01A8FBF752FF8DF807009DF8060094
:10DAD000401CC0B28DF806009DF806200DF107032A
:10DAE00000210846FDF70CF933B000BD70B50546BE
:10DAF00007480570012D02D14FF47A7400E0052427
:10DB0000044B224600210846FFF734FC70BD00009C
:10DB10000D0000209D93000810B50020FFF7E6FFE0
:10DB200010BD000010B58C220021034800F0F7FC66
:10DB300000200149886010BD341500202DE9F04116
:10DB40000446A0780A2802DA0F20BDE8F081D4F854
:10DB50000350E07936490880D4F809004860084647
:10DB60000088B5FBF0F0488008460088B5FBF0F16E
:10DB700000FB115020B12E484088401C2C494880A1
:10DB8000802200212A480C3000F0C9FC2848408837
:10DB9000B0F5806F01D90E20D7E7207A5A2830D10E
:10DBA00024482349886024480088402808D08028D9
:10DBB00009D0B0F5807F09D0B0F5007F0CD108E026
:10DBC0001E4E37460BE01E4E1E4F08E01E4E1F4FE6
:10DBD00005E01F4E1F4F02E00026002700BF00BFD8
:10DBE00013484068B0420BD3114840682844B842FB
:10DBF00006D20F4948682946FDF7A0FB0120A4E79B
:10DC000012E0207AA5280FD11348094988600846F8
:10DC10004068B0F5405F07D3084640682844B0F537
:10DC2000004F01D2012090E7FFF77CFF0E208CE728
:10DC30003415002097B300084C00F81F00000108BD
:10DC40000080010800000208002803080000040802
:10DC500000480608000008089D91000870B50446B9
:10DC6000134600220020087013E055090F4850F8B1
:10DC7000250002F01F060125B540284040B90D7867
:10DC80005A530878801C08700878642800DD05E085
:10DC9000521C06480C3840889042E6D800BF0878ED
:10DCA00008B9012070BD0020FCE7000040150020ED
:10DCB00070B50446B4F80350A078801EA070A07818
:10DCC0001D490988884202DC1B48806808B90D207C
:10DCD00070BD19484088A84201DA0E20F8E76911A2
:10DCE00015480C3050F8210005F01F020121914029
:10DCF0000840F0B9104840680F49098805FB010643
:10DD0000A1780D48621D836830469847012801D0EC
:10DD10001220DDE7691108480C3050F8210005F0A9
:10DD20001F020121914008436A1103490C3141F857
:10DD300022000120CCE700003415002010B5164A5F
:10DD40001F214020FDF78CFC13494868FCF744FA7A
:10DD5000C0B1AFF21703322200210846FFF70AFBD9
:10DD60000E480078401CC0B20C490870032812DD30
:10DD7000AFF23700FFF772FBFBF7F9FA012000F072
:10DD80000FF808E005480078002804DD002003496A
:10DD90000870FFF733FD10BD141500200E000020A1
:10DDA00038B504460CA000680090FFF7FBF9FFF7B8
:10DDB000E3FCFFF7B1FCFCF761F9FDF7EBFF012095
:10DDC000FBF75EF9022C02D16846FEF70BF9012041
:10DDD000FFF78CFE38BD000000F801534AF6AA2078
:10DDE00001490860704700000030004010B502484B
:10DDF000FFF734FB10BD0000DDDD000870B50546FF
:10DE00000C4645F255500949086008464560846053
:10DE10004AF6AA2008604CF6CC400860044B4FF448
:10DE2000487200210220FFF7A5FA70BD00300040C3
:10DE3000DDDD00080248008AC0F34500704700009D
:10DE4000000002402DE9F04704460E4617461D46E5
:10DE5000A5F10209322C3DDC99F81300123000F0D4
:10DE6000FF0804EB44111C4A1144881C4246294611
:10DE700000F02AFB012004EB4411174A505404EB34
:10DE8000441011460844467000BF42F201002121AF
:10DE900001FB040A04EB44101146421821215046AC
:10DEA00000F01EF89FB10C4890F87206401C0A4919
:10DEB00081F8720600BF42F201010848064A801A42
:10DEC00001EB000A054A0121504600F009F8012043
:10DED000BDE8F0870020FBE7000B00207211002056
