:020000040800F2
:10000000600600207D0100088101000883010008CE
:100010008501000887010008890100080000000030
:100020000000000000000000000000008B0100083C
:100030008D010008000000008F01000891010008F8
:100040009301000893010008930100089301000840
:100050009301000893010008930100089301000830
:100060009301000893010008930100089301000820
:100070009301000893010008930100089301000810
:100080009301000893010008930100089301000800
:1000900093010008930100089301000893010008F0
:1000A00093010008930100089301000893010008E0
:1000B00093010008930100089301000893010008D0
:1000C00093010008930100089301000893010008C0
:1000D00093010008930100089301000893010008B0
:1000E00093010008930100089301000893010008A0
:1000F0009301000800F002F800F02CF80AA090E844
:10010000000C82448344AAF10107DA4501D100F0D2
:1001100021F8AFF2090EBAE80F0013F0010F18BF73
:10012000FB1A43F00103184744010000540100008A
:100130000023002400250026103A28BF78C1FBD8F0
:10014000520728BF30C148BF0B6070471FB51FBDA5
:1001500010B510BD00F031F81146FFF7F7FF00F0C1
:100160006FF800F04FF803B4FFF7F2FF03BC00F0A4
:1001700057F8000080F308887047000008480047DF
:10018000FEE7FEE7FEE7FEE7FEE7FEE7FEE7FEE747
:10019000FEE7FEE703480449044A054B70470000A8
:1001A000F5000008600000206006002060020020CA
:1001B00060020020704770477047754600F02CF8C9
:1001C000AE4605006946534620F00700854618B044
:1001D00020B5FFF7DFFFBDE820404FF000064FF0ED
:1001E00000074FF000084FF0000B21F00701AC466C
:1001F000ACE8C009ACE8C009ACE8C009ACE8C0098B
:100200008D46704710B50446AFF300802046BDE828
:100210001040FFF7A8BF0000004870470000002012
:1002200001491820ABBEFEE726000200704770B5FA
:10023000044625462868FFF79DFF6868804770BD23
:1002400008480468084A2168914203D105490C31E5
:10025000096802E00349091D09680846FFF7E7FF3E
:1002600000BFFEE784030008558778AA7C020008D7
:0C027000000000206006000030010008C3
:04000005080000F5FA
:1002F00012270000000000000800000000000000BD
:1003000000000000000000000000000000000000ED
:1003100000000000436F6E74726F6C5069637475F7
:02032000726504
:1003800000000008000400080008000800500008F1
:0C039000005400080000010800000108F3
:0804040010270000FD8F00002D
:020000040800F2
:10080000101F0020D1090008D9090008DB090008E1
:10081000DD090008DF090008E10900080000000008
:10082000000000000000000000000000E3090008D4
:10083000E509000800000000E7090008D12B0008C6
:10084000EB090008EB090008EB090008EB090008B8
:10085000EB090008EB090008EB090008EB090008A8
:10086000EB090008EB090008EB090008EB09000898
:10087000EB090008EB090008EB090008EB09000888
:10088000EB090008EB090008EB090008EB09000878
:10089000EB090008EB090008EB090008EB09000868
:1008A000EB090008EB090008EB090008EB09000858
:1008B000EB090008EB090008EB090008EB09000848
:1008C000EB090008EB090008EB090008EB09000838
:1008D000EB090008A52E0008EB090008EB09000849
:1008E000FD100008EB090008EB090008EB090008FF
:1008F000EB09000800F002F800F05AF80AA090E8AE
:10090000000C82448344AAF10107DA4501D100F0CA
:100910004FF8AFF2090EBAE80F0013F0010F18BF3D
:10092000FB1A43F001031847B4310000D431000032
:100930000A444FF0000C10F8013B13F0070408BF05
:1009400010F8014B1D1108BF10F8015B641E05D0A3
:1009500010F8016B641E01F8016BF9D113F0080F58
:100960001EBF10F8014BAD1C0C1B09D16D1E58BFEA
:1009700001F801CBFAD505E014F8016B01F8016B21
:100980006D1EF9D59142D6D3704700000023002494
:1009900000250026103A28BF78C1FBD8520728BF8F
:1009A00030C148BF0B6070471FB51FBD10B510BDEB
:1009B00000F027FA1146FFF7F7FF02F0C5FE00F03E
:1009C00045FA03B4FFF7F2FF03BC00F04DFA000054
:1009D0000948804709480047FEE7FEE7FEE7FEE7D3
:1009E000FEE7FEE7FEE7FEE7FEE7FEE7044805490F
:1009F000054A064B704700001D2C0008F50800084A
:100A000010190020101F0020101B0020101B0020B8
:100A1000EFF3108072B6704780F31088704730BFD4
:100A200080F3088870474FF0010080F31388024874
:100A30000249016000BFFEE70CED00E00400FA058A
:100A400008B50146002000BF0CE00A5C02F0F0028D
:100A5000C0F10303CB5C03F00F031A430DF8002031
:100A6000421CD0B20328F0DD002004E01DF8002075
:100A70000A54421CD0B20328F8DD08BD03784B406D
:100A8000037043785340437083784B408370C3783E
:100A90005340C3707047F8B513460022072900DCA5
:100AA00001B9F8BD012B60D10578C1F10806012418
:100AB000B440641E2C408C404678C1F108070125E3
:100AC000BD406D1EC5F1FF053540C1F10806354139
:100AD0002C43E4B28DF800404578C1F108060124AA
:100AE000B440641E2C408C408678C1F10807012573
:100AF000BD406D1EC5F1FF053540C1F10806354109
:100B00002C43E4B28DF801408578C1F10806012438
:100B1000B440641E2C408C40C678C1F10807012502
:100B2000BD406D1EC5F1FF053540C1F108063541D8
:100B30002C43E4B28DF80240C578C1F108060124C7
:100B4000B440641E2C408C400678C1F10807012592
:100B5000BD406D1EC5F1FF053540C1F108063541A8
:100B60002C43E4B28DF8034053E0022B50D1C578FA
:100B700001248C40641E2C40C1F10805AC4006786D
:100B800001258D406D1EC5F1FF0535400D412C43FB
:100B9000E4B28DF80040057801248C40641E2C409E
:100BA000C1F10805AC40467801258D406D1EC5F1A8
:100BB000FF0535400D412C43E4B28DF801404578E6
:100BC00001248C40641E2C40C1F10805AC4086789D
:100BD00001258D406D1EC5F1FF0535400D412C43AB
:100BE000E4B28DF80240857801248C40641E2C40CC
:100BF000C1F10805AC40C67801258D406D1EC5F1D8
:100C0000FF0535400D412C43E4B28DF8034000E070
:100C100047E7002204E01DF802408454541CE2B26D
:100C2000032AF8DD00BF3CE710B504462046FFF775
:100C300007FF6C4802786C4801782046FFF72BFFCD
:100C40006A4802786A4801782046FFF717FF65482E
:100C50004278654841782046FFF71DFF2046FFF7A0
:100C6000EFFE62484278624841782046FFF706FF6F
:100C70002046FFF7E5FE5D4882785D488178204692
:100C8000FFF7FCFE57488278574881782046FFF7E7
:100C900002FF5648C2785648C1782046FFF7EEFE5C
:100CA0005048C2785048C1782046FFF7F4FE2046ED
:100CB000FFF7C6FE10BD30B50346002000BF07E0B9
:100CC0001C5C00F00305555D6C401C54441CE0B2F4
:100CD0008842F5DB30BD70B504460D4629462046F6
:100CE00000F092F908B9012070BD0020FCE770B552
:100CF00004460D46042229463E4802F036FD28B936
:100D000004223D49204602F041FD07E00422294625
:100D1000204602F03BFD2046FFF786FF70BD70B510
:100D200004460D4600262A462146A01D02F03AFD43
:100D300005F1080020700220607004222D49A01CDB
:100D400002F030FD2C4A2946A01DFFF7B4FF2078A1
:100D5000801E81B2204600F057F9064631122078F5
:100D6000801E21542078401E2654012070BDF8B505
:100D700004462178204600F047F908B10220F8BD6A
:100D800025786678022E1BD1A11C6846FFF7AFFFBD
:100D9000A5F10800C1B26A46A01DFFF78CFFA5F1BE
:100DA0000800C1B2A01DFFF796FF38B1A5F10802F7
:100DB000A11D204602F0F6FC0020E0E70120DEE75E
:100DC0000320DCE710B5044604222146094802F05E
:100DD000DDFC04222146084802F0D8FC0648FFF753
:100DE00023FF10BDD03A0008CC3A0008D83A0008DA
:100DF000D43A000860010020640100207047704769
:100E00007047754600F02CF8AE460500694653461B
:100E100020F00700854618B020B5FFF7E7FDBDE8D4
:100E200020404FF000064FF000074FF000084FF051
:100E3000000B21F00701AC46ACE8C009ACE8C009E2
:100E4000ACE8C009ACE8C0098D46704710B504464F
:100E5000AFF300802046BDE81040FFF7B2BD0000B0
:100E600000487047AC18002001491820ABBEFEE7CF
:100E7000260002007047000010B500F067FB006913
:100E800005490068884205D004480068BDE8104064
:100E900000F01ABE10BD0000A53CC35A9003000824
:100EA00070B500F053FB44694FF0006505E000F0B9
:100EB00059FA2168884204D01034D5F89003A04232
:100EC000F5D8103C074A1021204601F063F820684D
:100ED000A0F14901142901D8C0B270BD01495320C5
:100EE000086070BD7C18002070B50446204D28892C
:100EF00000280DD1082C00D3012401F0CDFF1D499D
:100F000031F81410B0FBF1F201FB1200801C2881B3
:100F10000221012000F0E0FA4FF4C872002480B1F1
:100F20002C81EC80A888401C80B2A880B0F57A7F24
:100F300005D9AC80104B0021032001F0B1FE002048
:100F400070BD2889401E0004000C2881F7D1E88874
:100F5000401C80B2E880642805D9EC80064B002153
:100F6000032001F09DFE2C81AC80012070BD0000AB
:100F700040010020B03A0008652A000870B5002141
:100F8000D0F80B401E4DC1EBC10305EB43021668C0
:100F9000A6421CD10021C47B5618367AA64201D144
:100FA000002070BD491CC9B20529F5D3517B491CED
:100FB000C9B20524B1FBF4F604FB161151730822E3
:100FC000294402EB4302C07B8854012070BD491CB8
:100FD000C9B21429D7D30B4B1978491CC9B21422B2
:100FE000B1FBF2F402FB14111970C1EBC10105EB66
:100FF0004101C27B0A72D0F80B000860012070BD6D
:10100000A80500202400002070B500230024002241
:10101000074E08E0855C5D4036F81550EBB2634042
:101020002C0A521C92B28A42F4D344EA032070BDC7
:10103000FC37000810B50549054800F061FFBDE820
:1010400010400449044800F05BBF00007802002013
:10105000F806002098040020180F002006E0052163
:10106000491E89B20029FBD1401E80B20028F6D16A
:101070007047000070B500F06FF980B24FF48072D5
:101080004FF4C07354005D009600402811D08028B2
:101090000FD090420DD098420BD0A04209D0A84268
:1010A00007D0B04205D0124881690068081AC0F321
:1010B0008F20104998420DD006DC40280DD08028A2
:1010C0000FD0904211D105E0A04203D0A84201D038
:1010D000B0420AD10848086070BD0748303808603F
:1010E00070BD05481838086070BD0020086070BDEC
:1010F0008003000838010020983A000810B5044821
:1011000000F0F6FF03494FF48060086010BD000056
:10111000E80600201404014070B58B088C07240FEA
:10112000124D2E6846F001062E609D00104B2B4498
:101130009D680F26A640B5439D609D68A04005436D
:101140009D600C4B1C680120884004431C60D10743
:1011500004D0084B0C33196801431960910704D57A
:10116000044908310A6802430A6070BD2038024011
:101170000000014000040140F0B5C1B0064614462D
:10118000002E32D0FA2C30D8224601A802F0FEFA06
:10119000A1B201A8FFF738FF0546FFF739FC074663
:1011A00006221349304602F086FAF0B12A0A01A855
:1011B000611C02554A1C4554D1B2FFF7B0FDA0B1E5
:1011C0009DF80420FA2A10D801A9304602F073FADB
:1011D00058B106220749304602F06DFA28B1384668
:1011E000FFF71AFC012041B0F0BD0020FBE7000032
:1011F000FC390008023A000870B500F059FE1949A0
:1012000000204870887001224A71174DC1F80C51B6
:10121000164BC1F8083101F5887148708A704A711F
:10122000134AC1F80C21134CC1F8084101F588712B
:101230004870887002244C71C1F80C51C1F8083113
:1012400001F58871487088704C71C1F80C210A480A
:10125000C1F80801BDE8704005220021074B0220BB
:1012600001F01EBD68010020F9340008411D00088E
:1012700061340008A51E0008FD1E00083510000896
:1012800070B505464FF40056304600F079F8A8B91D
:101290000E4C206840F400702060206840F0080088
:1012A000206000202860304600F06AF8216821F0B4
:1012B00008012160216821F40071216008B100203B
:1012C00070BDBDE8704000F04FB80000043C024023
:1012D00000224021104602F090B838B504466A4614
:1012E0000121204600F0D0FE9DF80010491C00911D
:1012F0006A460121204602F04DF838BD0122FF2147
:10130000014B002000F05FBD3601002010B50C46F7
:10131000002804D0012809D0022811D109E00220B8
:1013200001F0D6FF0B4801F001FD09E000F0C4FB1D
:1013300006E02AB1134600210522084601F0B0FC60
:10134000002C06D0012C04D02046BDE81040FFF749
:10135000C4BF10BDC51A00080148008870470000CE
:101360004C00F81F0020704704480168890703D526
:10137000022101600120704700207047183C0240A4
:101380000A4900E0401E10B10A68D207FAD140B104
:10139000086810F4F85F06D04FF4F8500860012098
:1013A000704703207047002070470000183C02403F
:1013B0000948016889070ED50068C00705D00648AE
:1013C00006490830016006490160034805490C30B0
:1013D0000160054901607047043C0240EFCDAB89D4
:1013E00005040302BFAE9D8C161514132DE9F041C0
:1013F00005460C4616464FF440573846FFF7C0FFE7
:1014000038B108E001CE01C5241F3846FFF7B8FF08
:1014100008B9002CF6DC14B10020BDE8F0810120F1
:10142000FBE700000248016841F0020101607047DB
:10143000043C02402DE9F0470024254B03EB8023B8
:10144000244E37684FF0010808FA00F52F4202D108
:101450003068284330604FF0030902F0030531E0A3
:1014600008FA04F70F422CD0D3F800C0600009FA44
:1014700000F62CEA060C05FA00FA4AEA0C0AC3F850
:1014800000A0012D01D0022D15D1D3F808C02CEAFF
:10149000060CC2F3C10A0AFA00FA4AEA0C0AC3F8B7
:1014A00008A0B3F804C02CEA070CC2F38007A740D9
:1014B00047EA0C079F80DF68B743560986403E43E2
:1014C000DE60641C31FA04F0CAD1BDE8F087000088
:1014D000000002401C38024002460020034B03EB90
:1014E0008222128A0A4200D0012070470000024086
:1014F000024A02EB80204183704700000000024056
:10150000024A02EB80200183704700000000024085
:101510000C4902280AD0032088770220C87701F1FD
:1015200028000862103048621A3870470920087095
:10153000082048700448C1F802001030C1F80600C5
:1015400000487047C0060020080F002001480068CE
:10155000704700003801002070B50D461446FFF7B3
:101560009FFC20700120287070BD70B506460D46A6
:101570001446FFF7EBFF026900687379012B03D073
:10158000022B0FD00E2070BD0B2129709188218075
:101590000168C4F802109168C4F80610007AA072BD
:1015A000012070BD1E2070BD70B506460C46154664
:1015B000FFF7CCFF0169F07848B1B0884A688242F1
:1015C00005D0A0F57F42FF3A01D0122070BD002067
:1015D0002070888828802078801CC0B2207089689C
:1015E00029502078001D2070012070BD10B50B46D9
:1015F0000D4900780978884214D10C4C2078F128E4
:1016000005D0F2280CD000202070222010BD1146F9
:10161000184601F0B9FD08B1F2202070012010BD7C
:10162000012010BD032010BD2D0000202C00002043
:1016300070B504460D46164600F036FA2379F02BB5
:1016400003D0F22B08D00E2070BD3246294620462A
:10165000BDE87040FFF789BF324629462046BDE805
:101660007040FFF7C3BF00002DE9F0410C4615465E
:10167000FFF76CFF026901684368002020704FF695
:10168000FF7028802078801CC0B22070134F16682D
:10169000BE4202D14FF0FF3200E092682A5020781B
:1016A000001DC0B220705A682A502078001DC0B2B8
:1016B000207051F8242B2A502078001D207004E05F
:1016C0002078431C23702A54491C0A78A2F1300068
:1016D0002A28F5D90120BDE8F0810000A53CC35AB5
:1016E00010B50446FFF732FF8168104A086890423F
:1016F00013D14868421C10D078B1B0F1443F0CD0EF
:10170000B0F1883F09D00A4A904206D08968C9439F
:10171000884202D1A04205D105E00648416EA142AF
:1017200001D0406E10BD002010BD00005A3CC3A582
:10173000424553540000F81F10B5044640210120D3
:10174000FFF7D6FE0220FFF789FC24B1802101209B
:10175000FFF7D6FE03E080210120FFF7C9FE02203B
:10176000FFF77CFC40210120FFF7CAFE0220FFF7B3
:1017700075FC4021BDE810400120FFF7B9BE10B54F
:101780003922C0210120FFF755FE80210120FFF7FB
:10179000B7FE4021BDE810400120FFF7B1BE70B593
:1017A00006460024202280210120FFF743FE002569
:1017B00040210120FFF79CFE0220FFF74FFC402153
:1017C0000120FFF79DFE0220FFF748FC6006040E93
:1017D00080210120FFF780FE08B1641CE4B20220E2
:1017E000FFF73CFC6D1CEDB2082DE1D34021012038
:1017F000FFF77EFE0220FFF731FC39228021012015
:10180000FFF718FE80210120FFF77AFE0220FFF784
:1018100025FC3046FFF790FF204670BD70B50546A9
:1018200040210120FFF764FE0220FFF717FC00248F
:10183000280604D580210120FFF762FE03E0802105
:101840000120FFF755FE6806050E0220FFF706FC93
:1018500040210120FFF754FE0220FFF7FFFB40214B
:101860000120FFF745FE0220FFF7F8FB641CE4B2FD
:10187000082CDDD3BDE8704000F031B810B58021F0
:101880000120FFF73DFE40210120FFF739FE022035
:10189000FFF7E4FB80210120FFF72AFE0220FFF77B
:1018A000DDFB4021BDE810400120FFF721BE10B54F
:1018B00080210120FFF71CFE0220FFF7CFFB402113
:1018C0000120FFF71DFE0220FFF7C8FB8021012049
:1018D000FFF716FEBDE810400220FFF7BFBB70B552
:1018E0000024202280210120FFF7A4FD0220FFF721
:1018F000B5FB40210120FFF703FE0220FFF7AEFBFE
:101900004FF4FA750EE0641CA4B2AC420AD9392235
:1019100080210120FFF78EFD80210120FFF7F0FDDF
:10192000002070BD80210120FFF7D6FD0028EAD1FC
:1019300040210120FFF7DCFD0220FFF78FFB392259
:1019400080210120FFF776FD80210120FFF7D8FDDF
:101950000220FFF783FB012070BD70B505460C46E1
:10196000FFF78CFF2846FFF759FF08B9641EF7D12F
:10197000FFF79DFF0CB1012070BD002070BD2DE967
:10198000F04107460E4615461C46FFF777FF3846DE
:10199000FFF744FFF0B1300AFFF740FFD0B1F0B2DB
:1019A000FFF73CFFB0B1FFF769FF47F00100FFF719
:1019B00035FF38B90EE00020FFF7F1FE05F8010B06
:1019C000641EE4B2012CF6D8641EE4B20120FFF7D5
:1019D000E6FE2870FFF76BFF14B10020BDE8F08130
:1019E0000120FBE72DE9F04107460E4615461C464F
:1019F000FFF744FF3846FFF711FF88B1300AFFF7C1
:101A00000DFF68B1F0B2FFF709FF38B908E015F82B
:101A1000010BFFF703FF18B1641EE4B2002CF6D1EE
:101A2000FFF745FF14B10020BDE8F0810120FBE77E
:101A30002DE9F04107460D4616461C46FFF71EFFEE
:101A40003846FFF7EBFE80B1280AFFF7E7FE60B1EA
:101A5000E8B2FFF7E3FE30B907E03046FFF7DEFEFD
:101A600018B1641EE4B2002CF7D1FFF720FF14B1C7
:101A70000020BDE8F0810120FBE70000084A45F2A4
:101A80005553136050609160580010604CF6CC4084
:101A900010600021034B4FF44872022001F000B99E
:101AA00000300040A91A000802494AF6AA2008603E
:101AB0007047000000300040014801F037B90000D5
:101AC000A91A00087047000010B5044600680649CE
:101AD0000840B0F1005F06D12068FEF7A1FF606802
:101AE000BDE81040004710BD0000FE2FF0B50546D0
:101AF0000F4614461E46304600F018F8C6F10400A2
:101B000085400F20F04038402843000104F1E021D7
:101B100081F8000404F01F01012088406109890058
:101B200001F1E021C1F80001F0BD0000072181436F
:101B30000902054A10684FF6FF031840034B18438B
:101B400008431060704700000CED00E00000FA054B
:101B500010B50549054800F0D3F9BDE81040044927
:101B6000044800F0CDB9000068010020E80600201C
:101B700088030020080F00202DE9F843044688461A
:101B80000D266078DFF8F09000EB800009EB800014
:101B9000C56800270020009001F026FA617888428D
:101BA00062D9A178286888424FD1207802280DD0C8
:101BB00004280BD0072809D0092807D005282CD0E5
:101BC0000B282AD00D2828D00C264DE0A86810B389
:101BD00060782A4901EBC000807998B1E278611CF5
:101BE000D21CA01C01F0DEFD84F80180A968601CF5
:101BF000884706460322A11C601C01F0D3FD022E7B
:101C000002D031E009262FE02868CF2800D901262C
:101C1000E078009028E00A2626E0E86898B1E278AB
:101C2000611CD21CA01C01F0BDFD84F80180621D66
:101C3000EB686946601C984706460322A11C601C9D
:101C400001F0B0FD10E00B260EE0607800EB8000A4
:101C500009EB8000006980477F1CFFB2B84203D9BE
:101C600055F8100FFF289CD99DF80000401CE0702B
:101C700026713046BDE8F883B83A000858010020C4
:101C800070B504460846FFF743FC05460120207066
:101C9000184E3068C4F801007068E060D4F806009F
:101CA0007168884202D0607901280CD9227DD5F86C
:101CB000020015322146FFF75FFA20B92978002289
:101CC0000220FFF723FBD4F80600716888420FD08A
:101CD000227DD5F8060015322146FFF74DFA00287F
:101CE00006D16978BDE8704000220220FFF70EBBE4
:101CF00070BD00008C18002070B5C0B00E461546AF
:101D000001AC01461022601C01F040FD0B49487AED
:101D1000401C48728DF814000422314604F1110071
:101D200001F034FDF27829460DF1190001F02EFD85
:101D300001212046FFF7A4FF40B070BD8C180020A1
:101D4000F8B50E4610F8015C841D00F11B0104F18A
:101D5000110300911F46621C314600F069F801280A
:101D60001ED129463846FFF707FF0246032A17D03F
:101D7000607C02280DD005280BD0072801D00B2845
:101D800001D1012A05D0092801D00D2808D1012A46
:101D900006D000F007F8607429462046FFF770FF70
:101DA0000120F8BD801E0C280BD2DFE800F0060AE7
:101DB0000A080A060A060A080A08032070470620CD
:101DC00070470020704710B590B0144601228DF87E
:101DD00000208DF801008DF802108DF80340224696
:101DE000194601A801F0D2FC241D0021E2B26B4685
:101DF000084600F002F810B010BD10B586B00124FE
:101E00008DF80C404FF08834CDF80D400024ADF82B
:101E100011408DF804408DF805008DF806108DF8FE
:101E200007201A4601A902A8FFF766FF06B010BDF9
:101E300070B51446184D20682968884206D0174AA4
:101E4000904203D0491C01D0042070BD2046FFF70A
:101E500095F830B120791249012804D005280CD01A
:101E60000EE0082070BDD4F805006A68904201D0E9
:101E7000062070BD0020486007E0D4F8050008B1D6
:101E80000D2070BDD4F80B004860D4F80B00C4F8E6
:101E90000500012070BD00008C18002042455354FD
:101EA000240000200C39C9B2801D00F0B7BD00002D
:101EB00010B50E494FF480642246A1F1200001F0D4
:101EC0004AFB0B492246A1F5826001F044FB094917
:101ED0002246A1F1200001F03EFB22460649BDE862
:101EE0001040A1F5826001F036BB00000807002019
:101EF000080B0020280F00202813002001F04CB808
:101F000070B50C4600256178002902D0012922D144
:101F10000EE00146D4F80C21A01D904710F0FF0000
:101F2000207014D02571A078012811D00120E07014
:101F3000D4F8083122792178A01D984728B1E0789B
:101F4000401E10F0FF00E07005D00120607070BDF1
:101F50000248007AEBE7657070BD00008C18002025
:101F600070B505460C46FFF723FA4FF4807603E080
:101F7000A4F5807405F580752846FFF781F908B14E
:101F8000B442F5D8FFF74EFAB44201D8012070BD33
:101F9000002070BD8B0707D021F0030141F0040140
:101FA00002E008C808C2091F0029FAD101207047C1
:101FB00070B505460C461646E10700D0641CFFF7D5
:101FC000F7F9324621462846FFF710FA0446FFF794
:101FD00029FA204670BD000030B5274B196801F082
:101FE0000C01264C042928D0082928D00C2929D0F6
:101FF000191F0968C1F34231491C4FF400428A405D
:102000000260196801F0F00109091D4A525C01687B
:10201000D14041601A6802F4E062120A184D113D85
:10202000AA5C21FA02F282601A6802F46052D20AB3
:10203000AA5CD140C160046130BD0460E1E7114990
:102040000160DEE719680E4AC1F38341093A515C29
:102050001A68C2F38152521C1D68ED0305D4074D66
:102060006943B1FBF2F10160CBE7064D6943B1FB77
:10207000F2F10160C5E70000083802400024F400D6
:102080001100002000127A002DE9F04105460C46AF
:10209000174620E0B5F5004F03D247F69C70844206
:1020A00002D90020BDE8F08105F03F00C0F14006F4
:1020B000A64200D32646F3B2A9B23A46A020FFF7C3
:1020C0005EFC50B13544A41B37444FF0FF31A020D3
:1020D000FFF743FC08B1002CDCD134B100221146DB
:1020E0001046FFF713F90020DCE70120DAE70000D3
:1020F0002DE9F04F91B0834600253227A946424E84
:102100004FF4806A71E028466D1CEDB2052805D9B0
:10211000052000F0D1FA86F801906CE00021032040
:1021200000F060F980460021042000F05BF95FEACE
:10213000C87002D086F801905DE05FEAC86019D5EA
:10214000707810B9584601F0F9FA002400217F2078
:1021500000F048F90146584601F092FA641CE4B2D6
:10216000322CF3D37078CD2802D986F8019042E062
:10217000323070705FEA887037D500214B2000F054
:1021800031F904460DF104080DE000217F2000F034
:1021900029F901467078B0FBF7F207FB120208F844
:1021A0000210401C70707078A042EED3322C02D81E
:1021B000584601F0C3FAB4FBF7F007FB104020B11A
:1021C000B4FBF7F007FB104200E0322201A95846A9
:1021D00001F071FA584601F00BFB86F8019020B926
:1021E000002203210220FFF791F851460120FFF75A
:1021F00073F9002887D07078002801D100F008F921
:1022000011B0BDE8F08F000040010020014901201D
:1022100088707047400100202DE9F04107460D46C7
:1022200000F052FA00F01EF92946BE2000F0DAF85C
:102230004FF480581BE0444603E0142001F082F97B
:10224000641E0021032000F0CDF8800601D4002C8C
:10225000F3D1002607E017F8011BFF2000F0C2F8B9
:102260006D1EEDB2761C322E01D2002DF3D1002D61
:10227000E1D10921872000F0B5F84FF4C87001F0D2
:1022800061F902E0B8F101080ED00021032000F04E
:10229000A9F8400702D4B8F1000FF3D100F014FA06
:1022A000BDE8F04100F0B4B8042000F005FAF5E70D
:1022B0002D48016841F480410160016821F48041AA
:1022C0000160001D016841F00201016026480C30E8
:1022D000016841F4804101602448016821F07C419B
:1022E0000160016841F028410160001D018821F46E
:1022F00060410180001D016821F07C41016001689E
:1023000041F07C410160001D016821F07C410160C9
:10231000016841F0A8410160144824300168C1F30C
:10232000130101600168124A1143016011480188DC
:102330000180018841F400710180018841F48071BD
:102340000180018841F00401018001880180018839
:1023500041F00801018001880180018841F04001BD
:102360000180FF2000F008B8183802400004024045
:10237000000050550038004010B500214FF6FE73A4
:102380000E4A06E00C46491C89B29C4201D300204B
:1023900010BD1488A407F5D5084C241D208000200A
:1023A00006E00146401C80B2994201D3002010BDD6
:1023B0001188C907F5D02088C0B210BD0838004088
:1023C00000F007010648028822F0380202800288E5
:1023D00042EAC1010180018841F04001018070475B
:1023E0000038004070B506460D464FF48054214633
:1023F0000120FFF77DF83046FFF7BEFF2846FFF7C4
:10240000BBFF054621460120FFF77AF8284670BD3C
:1024100010B505218720FFF7E5FF02218E20FFF789
:10242000E1FF02218820FFF7DDFF00218820FFF770
:10243000D9FF13218520FFF7D5FF80218620FFF7E4
:10244000D1FF00210320FFF7CDFF00210420FFF77B
:10245000C9FF0348016841F48061016010BD0000BC
:102460000004014010B503218820FFF7BBFF0821BD
:102470008820FFF7B7FF0121BDE810408E20FFF74D
:10248000B1BF00000CB50022019200922D490868EE
:1024900040F4803008604FF4A043086800F4003036
:1024A00000900198401C0190009810B90198984242
:1024B000F3D10868800302D50120009000E000926B
:1024C000009801283CD12048026842F004020260D2
:1024D000026842F002020260026842F001020260F9
:1024E00018482430026842F080520260C214174833
:1024F00002604268D206FCD41248083002680260CA
:102500000268026002680260026822F47D020260D2
:10251000026842F4110202600A6842F080720A60A6
:102520000A689201FCD5016821F00301016001688D
:1025300041F0030101600168C1F381010329FAD16F
:102540000CBD000000380240003C0240007000401A
:1025500010B50446E078012801D00F2010BD207985
:102560004938152801D30E2010BDFEF799FC01460D
:102570002079814209D000F0ADFD40B10021054B2A
:102580004FF44872084600F08BFB012010BD12206A
:1025900010BD00001527000810B5184A0178127800
:1025A000914229D1164C2178F22905D0F32921D066
:1025B00000202070222010BD401D01794279514039
:1025C0004A404271514001718188006800F072FDFB
:1025D000012811D100F0B8FD70B1F3202070FFF791
:1025E0006BFA084B4FF448720121002000F058FBB1
:1025F000012010BD012010BD032010BD2D000020C2
:102600002C000020270A000810B50446FFF74CFAFA
:102610000D4920780978884214D10C490878F128AE
:1026200005D0F2280CD000200870222010BDE078E0
:10263000801EC1B2A088A21DBDE8104000F0CABD36
:10264000012010BD032010BD2D0000202C00002013
:1026500010B50446FFF728FA2179F12903D0F329B0
:1026600006D00E2010BD204600F0E0FDC0B210BD27
:102670002046BDE81040FFF78FBF10B50446E07854
:10268000012801D1217961B178B100F0ADFC01469A
:10269000207981420ED900F0E1FC207900F0B4FCF1
:1026A00006E0022000F05CFE02E0012000F058FE8F
:1026B000012010BD0E2010BD0146024A0220FEF787
:1026C00025BE00001527000810B51148016821F447
:1026D0008061016000218E20FFF784FE01218720A8
:1026E000FFF780FE00218520FFF77CFE0021862079
:1026F000FFF778FE00210320FFF774FE002104207D
:10270000FFF770FEBDE81040022000F00DBF000092
:102710000004014010B500F049F94FF48051012048
:10272000FEF7EEFE4FF4006421460120FEF7E8FEBE
:10273000022000F0F9FE21460120FEF7D9FE3220EA
:1027400000F0F2FE00210320FFF74CFE00210420E0
:10275000FFF748FE80218720FFF744FE022000F0AB
:10276000E3FE00218720FFF73DFE00218520FFF7D3
:1027700039FE00218620FFF735FE00210320FFF7F8
:1027800031FE00210420FFF72DFE79218920FFF77B
:1027900029FE06218A20FFF725FEEA218B20FFF77C
:1027A00021FEEA218C20FFF71DFEFC218D20FFF782
:1027B00019FE00218E20FFF715FE2B219C20FFF72C
:1027C00011FE40219D20FFF70DFE0A219E20FFF7FC
:1027D00009FE03219F20FFF705FE6821A020FFF7D7
:1027E00001FE0121A120FFF7FDFD3A21A220FFF704
:1027F000F9FD9321A320FFF7F5FD0221A420FFF7A7
:10280000F1FDF621A520FFF7EDFD1D21AA20FFF720
:10281000E9FDAC21B020FFF7E5FD0021B220FFF774
:10282000E1FD0221B320FFF7DDFD1021B420FFF709
:10283000D9FD2821B520FFF7D5FD2D21B620FFF7C2
:10284000D1FDD421B720FFF7CDFD0021B820FFF73F
:10285000C9FD0021B920FFF7C5FD4221BA20FFF7CD
:10286000C1FD4521BB20FFF7BDFD5321BC20FFF773
:10287000B9FD5421BD20FFF7B5FD4221BF20FFF770
:10288000B1FD4521C020FFF7ADFD5321C120FFF769
:10289000A9FD5421C220FFF7A5FDFF21C320FFF7AA
:1028A000A1FDFF21C420FFF79DFDFF21C520FFF7FB
:1028B00099FDFF21C620FFF795FD8021D820FFF765
:1028C00091FD6021E920FFF78DFD4E21EE20FFF7FD
:1028D00089FDA521EF20FFF785FD2D21F020FFF7D1
:1028E00081FD2321F120FFF77DFD0D21F220FFF76F
:1028F00079FD5221F520FFF775FDFEF7D1FA493831
:1029000000EB80004006010EF920FFF76BFD0A2165
:10291000FA20FFF767FD0021F320FFF763FD002198
:10292000F420FFF75FFD6221F620FFF75BFD002139
:10293000F720FFF757FD0721ED20FFF753FD18485B
:102940000178A720FFF74EFD164B4FF4C872002107
:10295000032000F0A5F91E21FC20FFF743FD0C2108
:10296000FD20FFF73FFD3221FE20FFF73BFD012256
:102970000A211046FEF7D0FB022328220021184628
:10298000FFF7B4F80848016821F480610160FFF79F
:102990009BFEFFF73DFDBDE81040FFF737BC000090
:1029A00040010020652A00080004014010B51A48C3
:1029B000016821F480610160C11409220120FEF741
:1029C00039FD09224FF480510120FEF733FD4FF409
:1029D0008064002221460120FEF72CFD0022022106
:1029E0000120FEF727FD21460120FEF789FD022187
:1029F0000120FEF785FDA410092221460020FEF7E4
:102A000019FD21460020FEF77BFDFFF751FCBDE8D4
:102A100010400420FFF7D4BC000401402DE9F04130
:102A200006460F4615460D4CA078012813D12846BE
:102A3000FEF75AFA78B10020A0700021084BC82296
:102A4000084600F02DF92A4639463046FFF7E4FBE8
:102A50000120BDE8F0810020FBE7000040010020DC
:102A60000D22000870B500212620FFF7BBFC324B79
:102A70001978814201D2421A00E00A1A2E4C002530
:102A80000A3C082A36DA400800EB5100C0B2187040
:102A9000D978491CC9B2D97014293FD9A0F10A01CB
:102AA000D32924D21430C1B22170A720FFF79AFC99
:102AB0006069C8B100F0F0F96169884204D200F0A1
:102AC000EBF96169081A03E000F0E6F96169401A60
:102AD0001A49884204D20420FFF7EEFD656106E042
:102AE00000F0DAF9606102E000F0D6F9606125617A
:102AF000002070BD5978814201D2411A00E0091AC4
:102B0000322909DA9978491CC9B29970042905D982
:102B10001870DD709D7001E058709D702069401C38
:102B20002061B0F5167F05D925610420FFF7C4FDAB
:102B3000002070BD012070BD4A010020A068060081
:102B400010B500F0DBFB002207210220FEF7DEFBC0
:102B50000021054B4FF47A72084600F0A1F8BDE859
:102B600010400248FEF72EB9F532000890180020F8
:102B700070B50D4C4FF0FF3020600020FEF7B0FD27
:102B8000606002202072002565721422002104F189
:102B90000A0000F024FEA5772246BDE870401F2100
:102BA000402000F0F7BB00008C18002010B500F0AA
:102BB00021F8FEF7E4FDFFF7ADFD4FF4165000F0ED
:102BC0008BF9BDE810404FF4FA610520FEF756BFBF
:102BD000064A10680649B0FBF1F301FB13001060D0
:102BE0001068401C106000F005B900003C01002096
:102BF0000084D71700B585B06846FFF7EDF9019856
:102C00004FF47A71B0FBF1F14FF0E020491E4161C1
:102C10000721016105B000BD0620704710B51048BE
:102C2000016841F4807101600D4908310A680D4B5B
:102C30001A400A6002680C4B1A400260026822F4D3
:102C400080220260086820F47D000860091D0020D1
:102C50000860FFF717FC054805490068086010BDCB
:102C6000003802400CC0FF88FEFFFEEE880300081B
:102C700008ED00E010B5064B06E0044603EB041433
:102C8000401C2469944202D08842F6D3002010BD33
:102C900028170020014900200860704728170020ED
:102CA0002DE9F04706460F46144699464FF00108B5
:102CB0001D4D288869880144142902D30220BDE8EB
:102CC000F0874A460020FFF7D5FF98B1484600F04C
:102CD000AFF8288869884A4601440020FFF7CAFFF8
:102CE000401E4FF0030805EB00100671C0F810906D
:102CF00086B112E068880201288805EB0011401CAB
:102D000005EB0010091D001D00F04CFD2888411C3A
:102D10002980E8E704B90124012700214171C78017
:102D20008460C1604046CAE72817002010B50F4CE8
:102D300002460020218863881944FFF79BFF002882
:102D400012D021886288114481420AD9091A0A01E5
:102D500004EB0011401E04EB0010091D001D00F0E3
:102D600021FD2088401E208010BD00002817002073
:102D70002DE9F0411E4F3C1D13E0607880B1FDF756
:102D800047FE0646E56800206070217889B1012978
:102D900011D002291BD003291ED03046FDF73CFE7E
:102DA0001034388807EB0010001DA042E5D8BDE8BC
:102DB000F081012060706088411E618007D2284642
:102DC000FFF7B4FF103C3046FDF726FEE8E730463B
:102DD000FDF722FEA847E3E73046FDF71DFEA847B2
:102DE0000028DDD12846FFF7A1FF103CD8E70000FE
:102DF0002817002070B5FDF70BFE0C4B191D0024A1
:102E0000012508E08A68521C8A604E68B24201D3EC
:102E10008C604D7010311A8803EB0212121D8A4229
:102E2000F0D8BDE87040FDF7F7BD0000281700207E
:102E30007FB50246174D288869880144FFF71AFFBD
:102E40000446002C25D02888201A01281BD9601E92
:102E500005EB0011091D1022684600F097FC288838
:102E6000211A0A0105EB0011401C05EB0010091D99
:102E7000001D00F097FC2888102205EB0010001DB3
:102E8000694600F083FC2888401C28806888401E22
:102E900068807FBD28170020014800687047000047
:102EA0003C01002070B50A4C208880060BD5FDF748
:102EB000AFFD0546211D09880648C9B200F0E0FBB8
:102EC0002846FDF7A9FD208820F02000208070BD55
:102ED00000380140080F002010B586B0044601A854
:102EE000FFF77AF82949086840F4804008600868CC
:102EF00020F48040086025490831086840F001004E
:102F00000860091D086840F480400860204908688E
:102F100020F470100860086840F420100860888869
:102F200020F4C0608880886820F470108860886809
:102F300040F470108860C86820F47010C860486A57
:102F40004862486A40F4EE60486204981149B0FB58
:102F5000F4F00880081D018842F20C021143018040
:102F6000018841F480710180018841F020010180D5
:102F700008494FF6BF700839088003210223252233
:102F80000846FEF7B3FD06B010BD0000143802403D
:102F9000000002400838014070B505460C4604E0C8
:102FA00015F8010B00F008F820B1641EE4B2F7D266
:102FB000012070BD002070BD10B5002144F62062D4
:102FC000084B00E0491C1C88640601D49142F9D3E7
:102FD000914204D20349091D0880012010BD002040
:102FE00010BD0000003801400120704710B50024DA
:102FF00004E0204600F008F8641CE4B2FFF7F4FF98
:10300000A042F6D810BD0000044900EB800201EB9D
:1030100082014968002900D008477047B83A000883
:1030200070B504460E46802506E006EBC40205EBAB
:1030300004100821FFF728F8641EE4B2F5D270BD31
:1030400010B5002404E0204600F008F8641CE4B247
:10305000FFF7CAFFA042F6D810BD0000084A4FF0A3
:10306000FF3142F8301002EBC002002191800123B1
:103070009371D171802101EB0010082100F08AB911
:103080005801002070B5012408490120FFF7C8FF4E
:10309000074D08E0641EE4B204EB840055F82010EC
:1030A00009B120468847002CF4D170BD580100209A
:1030B000B83A000810B50C4681B205480068FDF723
:1030C000A3FF201A80B208B1002010BD012010BD5E
:1030D000900300082DE9F0410746FEF737FA054650
:1030E0006C69DFF86080C8F800704FF0006612E08D
:1030F000FEF738F92168884206D12046BDE8F04144
:10310000104A0421FEF754BF08F104020C21201DCF
:10311000FEF740FF1034D6F89003A042E8D8094AE1
:103120001021103A2869FEF735FFD6F89013286968
:10313000091AFEF715FF034A1021103A2869FEF715
:1031400037FFCAE77C18002070B5FEF7FFF9044688
:10315000FDF7A6FE0546FEF705F90A4908604FF09F
:103160000060D0F890132069091AFEF7F9FE054AAD
:1031700010212069FEF71CFF2846BDE87040FFF7CC
:10318000A9BF00006C180020F0B5002200230370D6
:103190000F4C012513E0530904EB830302F01F07D2
:1031A000D3F8076005FA07F31E4207D121F8022B76
:1031B00003789B1CDBB20370642B03D8521CA388DA
:1031C0009342E8D8007808B10020F0BD0120F0BD9E
:1031D0002E0000202DE9F041134B9C88641E844290
:1031E00001D3C82902D90020BDE8F081440903EBCE
:1031F000840400F01F07D4F807600125BD402E426B
:103200000DD14FF000669B79D6F8906300FB036008
:10321000FEF7CEFE28B154F8070F284320600120A6
:10322000E2E70020E0E700002E00002070B54179C1
:10323000012901D01E2070BD134C01786170A11CC2
:10324000C2880B685A600B688268DA600B68D0F835
:103250000D209A60007B88710A68D268B2FBF0F397
:10326000B2FBF0F500FB152008B1012000E00020C2
:10327000184488800448801C00F008F80128DAD13E
:10328000F1202070012070BD2C00002070B5044694
:10329000A079800701D0212070BD4FF00065D5F8DE
:1032A0009013D5F89403401A2168C968814201D966
:1032B000202070BD4FF480720021E01D00F08FFAD5
:1032C0002068C168D5F89003BDE87040FEF748BE9D
:1032D00006490870012805D005220021044B084644
:1032E000FFF7DEBC4FF47A72F7E7000036010020EA
:1032F000FD1200080020FFF7EBBF000010B5164AD2
:103300001F214020FEF7C0FE13484068FEF7E8F991
:10331000124CB8B1AFF21B03002132220846FFF76E
:10332000BFFC2078401CC0B22070032813D9AFF234
:103330003300FFF7FBFCFDF7CBFFBDE81040012099
:1033400000F00EB82078002805D000202070BDE8DD
:103350001040FFF797BE10BD8C18002035010020EB
:103360001CB5044609A106C9CDE90012FFF700FC0F
:10337000FFF766FEFFF73AFE022C02D16846FFF720
:10338000E7F80120FFF7A4FF1CBD00000100F801D1
:10339000530000002DE9F04105460C46174620E099
:1033A000B5F5004F03D247F69C70844202D9002045
:1033B000BDE8F08105F03F00C0F14006A64200D311
:1033C0002646F3B2A9B23A46A020FEF70BFB50B155
:1033D0003544A41B37446FF07041A020FEF7BDFABE
:1033E00008B1002CDCD134B1002211461046FDF7A3
:1033F0008DFF0020DCE70120DAE72DE9F0410546EA
:103400000C4617461FE0B5F5004F03D247F69C70F7
:10341000844202D90020BDE8F08105F03F00C0F1F0
:103420004006A64200D32646F3B2A9B23A46A020EF
:10343000FEF7FEFA48B13544A41B6FF07041A0209E
:10344000FEF78BFA08B1002CDDD134B10022114611
:103450001046FDF75BFF0020DDE70120DBE7000001
:1034600070B506460C46002C40D0204600F05BF9B3
:1034700006283BD906221E49204600F09AF8A06093
:10348000204600F08EF8012830D0A0686168801DC9
:10349000B0FBF1F201FB120021680D5C012D1DD97A
:1034A0000C35FA2D1AD8204600F03DF9A8421DD35C
:1034B000A168A81F084461680623B0FBF1F201FB74
:1034C00012010C4A204600F051F838B12A46314624
:1034D000204600F0A2F848B1284670BDA068616897
:1034E000801DB0FBF1F201FB1200A060002070BD56
:1034F000FC390008023A000870B505462846FFF777
:10350000AFFF04465CB1A81DFDF731FC38B9AC7EB5
:103510001D3428190622034900F038F9A41D20465D
:1035200070BD0000023A000870B5044640F2E6356E
:1035300004E0FEF7B9FA284600F004F8641E601CA7
:10354000F7D170BD03E00A21491E0029FCD1401EBD
:10355000411CF8D17047002806D00160426000216C
:10356000C16081600120704700207047F0B5076896
:10357000002F02D00AB100240FE00020F0BD466801
:103580000D19B5FBF6FC06FB1C5512F8016B7D5DB1
:10359000B54201D00020F0BD641C9C42EFD3012055
:1035A000F0BDD0E90210814201D101207047002016
:1035B0007047F0B5002806D029B122B184680023F5
:1035C000C668456812E00020F0BD076811F803C026
:1035D0003F5D674504D15B1C934202D15B1E07E04F
:1035E0000023641CB4FBF5F705FB1744A642ECD19D
:1035F0002819C01AB0FBF5F105FB1100F0BDC16838
:103600004268491CB1FBF2F302FB1311806881424E
:1036100001D101207047002070472DE9F041044698
:103620000F461546002C0CD02046FFF7BAFF0128A4
:1036300009D0204600F077F8A84206D20020BDE865
:10364000F0810020FBE70020F9E7D4E901100E1A11
:10365000AE4200D32E46216832460144384600F07F
:1036600095F8AA1BB819216800F090F8A068616865
:103670002844B0FBF1F201FB1200A0600120DEE75C
:1036800070B504460D46002C11D02046FFF7B7FF59
:1036900001280ED0E16820684554E0686168401C4C
:1036A000B0FBF1F201FB1200E060012070BD0020D0
:1036B00070BD002070BD2DE9F04104460F4615464F
:1036C000002C07D0204600F022F8A84204D20020A7
:1036D000BDE8F0810020FBE76168E0680E1AAE42A9
:1036E00000D32E46216832460844394600F04EF891
:1036F000AA1BB919206800F049F8E06861682844FD
:10370000B0FBF1F201FB1200E0600120E0E7D0E93C
:103710000212914202D9881A401E7047406808443C
:10372000801A401E7047D0E90221914203D24068BE
:103730000844801A7047881A704700000622014921
:10374000FFF7B9BFFC390008FDF794FCFDF794FBC7
:10375000FFF7A0FAFFF72AFAFDF74EFDFFF792FCFC
:10376000FEF7F6F9FFF704FBFAE710B588420BD035
:1037700052B110F8013B11F8014BA34201D00120D6
:1037800010BD521E002AF4D1002010BD884208D07E
:10379000002A06D011F8013B00F8013B521E002A16
:1037A000F8D1704788420AD2002A07D011F8013BAD
:1037B00000F8013BA2F10102002AF7D17047FDD9C0
:1037C00000EB020301EB0200002AF7D010F8011D04
:1037D00003F8011DA2F10102002AF7D17047002A67
:1037E00004D000F8011B521E002AFAD170470000D5
:1037F00006220149FFF75FBF023A00080000C1C07E
:1038000081C1400101C3C003800241C201C6C0069C
:10381000800741C70005C1C581C4400401CCC00C6C
:10382000800D41CD000FC1CF81CE400E000AC1CA2C
:1038300081CB400B01C9C009800841C801D8C0181C
:10384000801941D9001BC1DB81DA401A001EC1DE9C
:1038500081DF401F01DDC01D801C41DC0014C1D48C
:1038600081D5401501D7C017801641D601D2C012AC
:10387000801341D30011C1D181D0401001F0C0307C
:10388000803141F10033C1F381F240320036C1F69C
:1038900081F7403701F5C035803441F4003CC1FC6C
:1038A00081FD403D01FFC03F803E41FE01FAC03A2C
:1038B000803B41FB0039C1F981F840380028C1E85C
:1038C00081E9402901EBC02B802A41EA01EEC02E9C
:1038D000802F41EF002DC1ED81EC402C01E4C0248C
:1038E000802541E50027C1E781E640260022C1E2AC
:1038F00081E3402301E1C021802041E001A0C060BC
:10390000806141A10063C1A381A240620066C1A69B
:1039100081A7406701A5C065806441A4006CC1AC6B
:1039200081AD406D01AFC06F806E41AE01AAC06A2B
:10393000806B41AB0069C1A981A840680078C1B81B
:1039400081B9407901BBC07B807A41BA01BEC07E9B
:10395000807F41BF007DC1BD81BC407C01B4C0748B
:10396000807541B50077C1B781B640760072C1B2AB
:1039700081B3407301B1C071807041B00050C190FB
:10398000819140510193C053805241920196C0569B
:10399000805741970055C19581944054019CC05C6B
:1039A000805D419D005FC19F819E405E005AC19A2B
:1039B000819B405B0199C059805841980188C0485B
:1039C00080494189004BC18B818A404A004EC18E9B
:1039D000818F404F018DC04D804C418C0044C1848B
:1039E000818540450187C047804641860182C042AB
:1039F000804341830041C18181804040F1F1F1F277
:103A0000F1F1F2F2F2F1F2F2C00000000000000069
:103A100000000000A9150008C1000000000000001F
:103A20000000000069160008C90000000000000046
:103A30007B26000800000000F400000000000000E9
:103A40005126000831160008F500000000000000B3
:103A50000926000800000000F80000000000000037
:103A60005125000859150008F0020008000400085C
:103A7000300400083C0400080050000840500008D2
:103A8000F002000800040008300400083C040008AC
:103A90000060000840600008F0020008000800080C
:103AA000300800083C08000800680008406800086A
:103AB0000500050005000500412B0008000000007E
:103AC00000000000083A0008192C0008040302074F
:103AD0000202010254F139CDE3A3A432FC3A0008FA
:103AE000000000206801000030090008203B0008A9
:103AF00068010020A81D00008C09000841800E010B
:103B0000020304030406080C101820302915B5061A
:103B100007080915EF016C1802FF20F10227A00029
:04000005080008F5F2
:0C5004003201000030750000867E0100C3
:045040005300A55A1A
:020000040800F2
:10540000E8260020D5550008DD550008DF550008C6
:10541000E1550008E3550008E555000800000000CC
:10542000000000000000000000000000E755000838
:10543000E955000800000000EB550008A1CC000869
:10544000EF550008EF550008EF550008EF5500082C
:10545000EF550008EF550008FDB10008EF550008B2
:10546000EF550008EF550008EF550008EF5500080C
:10547000EF550008EF550008EF550008EF550008FC
:10548000EF550008EF550008EF550008EF550008EC
:10549000EF550008EF550008EF550008EF550008DC
:1054A000EF550008EF550008EF550008EF550008CC
:1054B000EF550008EF550008EF550008EF550008BC
:1054C000EF550008EF550008EF550008EF550008AC
:1054D000EF550008C1CE0008EF550008EF55000851
:1054E00009B20008EF550008EF550008EF55000815
:1054F000EF55000800F002F800F04AF80AA090E822
:10550000000C82448344AAF10107DA4501D100F07E
:105510003FF8AFF2090EBAE80F0013F0010F18BF01
:10552000FB1A43F00103184780860000A0860000A4
:105530000A4410F8014B14F00F0508BF10F8015B86
:10554000240908BF10F8014B6D1E05D010F8013B6F
:105550006D1E01F8013BF9D1641E03D0641E01F8F1
:10556000015BFBD19142E4D370470000002300248B
:1055700000250026103A28BF78C1FBD8520728BF63
:1055800030C148BF0B6070471FB51FBD10B510BDBF
:1055900005F02AFB1146FFF7F7FF07F0D9FC05F0ED
:1055A00048FB03B4FFF7F2FF03BC05F04FFB00001C
:1055B00072B6704762B6704730BF72B662B680F39B
:1055C0000888704780F310887047EFF3108072B638
:1055D000704700000948804709480047FEE7FEE79A
:1055E000FEE7FEE7FEE7FEE7FEE7FEE7FEE7FEE793
:1055F00004480549034A054B7047000015CD0008D3
:10560000F5540008E81E0020E8260020E81E0020CF
:1056100070B505460C46607810B1012824D113E01E
:105620002946A01DD4F80C219047C0B2207000B9C3
:105630001FE000206071A078012802D1B148007AF3
:1056400000E00120E07000BF62792178A01DD4F84D
:105650000831984720B1E078401EC0B2E07010B128
:105660000120607005E000BF07F05CFC0020607066
:1056700000BF00BF70BD10B5A349A448FFF7C8FF25
:10568000A349A448FFF7C4FF10BD2DE9F04104462B
:105690000E46174625463146284604F0CAF9012829
:1056A00005D12878032800D100E000BF00BF012009
:1056B000BDE8F0810146881E0C280FD2DFE800F01B
:1056C000060E0E0A0E070E080E0B0E0C00BF00BFD2
:1056D0000320704700BF00BF0620FAE700BF00BFED
:1056E0000020F6E7F8B504460D26607800EB800050
:1056F000894901EB8000C56800270020009007F071
:10570000F1FB617888425EDD00BFA178286888429D
:1057100045D12078022808D02078042805D02078A8
:10572000072802D02078092823D1A868F8B160782A
:1057300000EB8000794901EB4000807920B909260F
:10574000607801F098FD29E0601CA968884706464A
:10575000022E23D12868CF2800D90126E0780090B6
:105760009DF80020211D601D02F04DFF16E00A2665
:1057700014E02078052805D020780B2802D0207866
:105780000D280AD1E86830B1621D6946601CEB68DB
:105790009847064602E00B2600E00C2612E06178EE
:1057A00001EB81015C4A02EB810108698047791CA9
:1057B000C9B20F46884205DD05F1140005460068B0
:1057C000FF28A2D900BF9DF80000401CE0702671A0
:1057D0003046F8BD2DE9F84305460F469046AC1D0E
:1057E00005F11B0004F11103621C394600902846A4
:1057F00003F0AFFE0646012827D104F11100FFF7A0
:1058000071FF0646032E20D007F0E0F906F0A8F954
:10581000607C022812D0607C05280FD0607C0728AD
:1058200002D0607C0B2801D1012E07D0607C0928B2
:1058300002D0607C0D2808D1012E06D0607CFFF7D5
:1058400039FF6074204603F02DFD0120BDE8F88388
:1058500010B54FF480623249324800F057FA4FF4E5
:1058600080623149294800F051FA00BF00202F49D9
:105870004870887008712E48C1F808012D48C1F899
:105880000C0100BF00BF00201F4948700120887034
:10589000002008712848C1F808012848C1F80C0107
:1058A00000BF80222649274800F030FA802226498E
:1058B000184800F02BFA00BF002024494870887077
:1058C000012008712248C1F808012248C1F80C01E2
:1058D00000BF00BF00200E49487001208870087189
:1058E0001548C1F808011B48C1F80C0100BF1A4B4C
:1058F00005220021022001F04DF910BD0249C1F836
:10590000080170479C1200202C0B00200C02002084
:105910006C0E00204C0C0020ACD50008E8010020E3
:105920001C020020FC0100201C0600201C0A002094
:10593000D5570008B35B0008C1C90008EB5A00083E
:105940005C0C00203C0C0020DC0C00205C0D0020D6
:105950008B5600087D5900087756000810B504469C
:105960000622C749204600F01FFA10BD10B50446B4
:105970000622C449204600F017FA10BD2DE9F04177
:1059800006460C4600BF04B967E000BF00BF2046D2
:1059900000F0D2F9012800D15FE000BF0622B8492B
:1059A000204600F0B1FA0546A56000BF204600F091
:1059B000C3F9012800D150E000BF0725A0682844A2
:1059C000401E6168B0FBF1F201FB12002168085C27
:1059D0000830054400BFFA2D00D935E000BF00BFF4
:1059E000204600F0D2F9A84200D236E000BF00BF46
:1059F000A0682844801F6168B0FBF1F201FB120728
:105A00000623A04A3946204600F0ACFA00B91BE054
:105A100000BF00BF2A463146204600F0FAF900B91F
:105A20001BE000BFB57900BFA81C81B2F01D02F0D9
:105A30003FFE00B111E000BF2A46F11D304602F0E2
:105A4000E2FD2846BDE8F081A068801D6168B0FBDA
:105A5000F1F201FB1200A06000BF0020F2E72DE987
:105A6000F04106460F46154600BF06B93BE000BFB1
:105A700000BF06228249304600F096F900B932E0B4
:105A800000BFA9B2384602F013FE044600BFE9B2D7
:105A9000304600F0FCF900B925E000BF00BF2A46FF
:105AA0003946304600F080F900B91CE000BF00BF65
:105AB0002112304600F0EBF900B914E000BF00BF3E
:105AC000E1B2304600F0E3F900B90CE000BF00BFDE
:105AD00006226C49304600F067F900B903E000BFC8
:105AE0000120BDE8F0810020FBE72DE9F0410646EA
:105AF0000C4600BF04B95AE000BF00BF204600F0CA
:105B000044F9062800D852E000BF06225C4920462E
:105B100000F0FAF90546A56000BF204600F00CF938
:105B2000012800D143E000BFA068801D6168B0FB80
:105B3000F1F201FB120021680D5C00BF012D00D1C4
:105B40002CE000BF0C3500BFFA2D00D926E000BFC5
:105B500000BF204600F019F9A84200D227E000BF9C
:105B600000BFA0682844801F6168B0FBF1F201FB10
:105B700012070623434A3946204600F0F3F900B9DC
:105B80000CE000BF00BF2A463146204600F041F934
:105B900000B90CE000BF2846BDE8F081A068801D78
:105BA0006168B0FBF1F201FB1200A06000BF0020B1
:105BB000F2E770B504460E4631462046FFF795FFE2
:105BC000054665B1A01D02F054FC40B9A07E00F16D
:105BD0001D05601906222B4902F0EAFCAD1D28467E
:105BE00070BDF0B5C1B006460F46144600BF06B9F9
:105BF00044E000BF00BFFA2C00D93FE000BF2246BE
:105C0000394601A802F0D4FCA1B201A802F050FD6F
:105C1000054600BF06221A49304600F0C5F800B913
:105C20002CE000BF2A122046641C01A90A54204619
:105C3000641C0D5400BFE1B201A802F0F2FB00B9F0
:105C40001CE000BF9DF8044000BFFA2C00D915E00D
:105C500000BF00BF224601A9304600F0A5F800B9F8
:105C60000CE000BF00BF06220649304600F09CF859
:105C700000B903E000BF012041B0F0BD0020FBE708
:105C800060D6000866D60008014604E00A2000E05D
:105C9000401E0028FCD10A1EA1F10101F6D1704777
:105CA00010B5044605E007F047F940F2E630FFF78B
:105CB000EBFF201EA4F10104F5D110BD70B506461E
:105CC0000C46154626B1012E09D0022E12D109E04C
:105CD000022001F02FFA0C4800F0CEFF0BE007F095
:105CE0002CF908E02DB12B4605220021084600F0D2
:105CF00051FF00E000BF00BF24B1012C02D02046BC
:105D000001F040FC70BD000065BB0008034600BF09
:105D10000BB90020704700BF19605A600020D8609E
:105D200098600120F6E700BF00B9704700BF00216E
:105D30008160C16000BFF8E70146D1E902029042EC
:105D400001D1012070470020FCE70146C868401CD3
:105D50004A68B0FBF2F302FB13008A68904201D15B
:105D6000012070470020FCE70146D1E90202904281
:105D700004D9D1E90202801A401E7047D1E901021C
:105D80001044CA68801A401EF7E70146D1E9022094
:105D9000904205D24A68C86810448A68801A7047E1
:105DA000D1E90220801AFAE72DE9F04104460F46B6
:105DB000154600BF14B90020BDE8F08100BF00BF48
:105DC0002046FFF7D1FFA84201D20020F4E700BF30
:105DD000E1686068401AA84203D2E1686068401A2E
:105DE00000E028460646E2682168881832463946AF
:105DF00002F0DEFBAA1BB919206802F0D9FBE068AB
:105E000028446168B0FBF1F201FB1200E060012060
:105E1000D2E72DE9F04104460E46154600BF14B9FD
:105E20000020BDE8F08100BF00BF2046FFF784FFDF
:105E3000012801D10020F4E700BF00BF2046FFF792
:105E4000A4FFA84201D20020EBE700BFD4E9010182
:105E5000401AA84203D2D4E90101401A00E02846C2
:105E60000746A268206881183A46304602F0A0FB37
:105E7000EA1BF019216802F09BFBA06828446168C6
:105E8000B0FBF1F201FB1200A0600120C9E770B580
:105E900004460D4600BF0CB9002070BD00BF00BF16
:105EA0002046FFF752FF012801D10020F5E700BF8F
:105EB000E16820684554E068401C6168B0FBF1F27D
:105EC00001FB1200E0600120E7E710B503460C4635
:105ED00000BF0BB9002010BD00BF00BF1846FFF780
:105EE0002BFF012801D10020F5E700BF9968186851
:105EF000405C20709868401C5968B0FBF1F201FBCF
:105F0000120098600120E6E7F0B503460C461546FE
:105F100000BF0BB104B10DB90020F0BD00BF9968FE
:105F2000002212E01868405CA65CB04205D1501C0B
:105F30000246A84202D1521E0AE00022481C5E68B6
:105F4000B0FBF6F706FB17000146D8688842E9D196
:105F500000BF58680844801A5E68B0FBF6F706FB7D
:105F60001700DAE7F0B504460D4600BF206800B11F
:105F70000AB90020F0BD00BF00210EE06818666875
:105F8000B0FBF6F706FB17002668365C12F8017BBB
:105F9000BE4201D00020EDE7491C9942EED301201A
:105FA000E8E7000010B5802223492448FFF7AEFE41
:105FB00010BD1CB5072269462048FFF72AFF58B1DB
:105FC000DDF803309DF802209DF801109DF80000D7
:105FD00002F0FEFD01201CBDFFF7E4FF0020FAE700
:105FE0002DE9FC4105460C4616461F4605EB85008B
:105FF000134901EB4000807918B9C72C16DDDD2C60
:1060000014DA8DF800508DF801408DF80260CDF85B
:106010000370072269460948FFF7C6FEAFF26D0319
:10602000C8220021032000F0B5FD02E0284601F05F
:1060300022F9BDE8FC8100008C0F00207C0F0020BD
:10604000E80100202520704710B5002001F072F80B
:1060500010BD10B5044601F067FA03F0F1FF02F03D
:106060002BFD01F0F4FCFFF79DFFFA4802F02CFA3B
:10607000002207210220FFF721FEAFF233034FF485
:106080007A720021084600F085FD10BD2DE9F05F11
:1060900083460C461546002602F080FA0746D7F8DC
:1060A00010A0D7F80080D7F804900020207042F2AA
:1060B000D870217868522078801C20702178DAF816
:1060C000080068502078001D2070E349D9F80000CE
:1060D000884201D1C01701E0D9F804002178685046
:1060E0002078001D20702178D8F8000068502078B2
:1060F000001D207008F1240605E031782278501C3C
:106100002070A954761C30785A2802DC3078302868
:10611000F3DA0120BDE8F09F2DE9F04105460C4679
:10612000164602F03BFA8046D8F81070A87850B1B5
:10613000B5F803107868884205D0B5F803004FF62B
:10614000FF71884210D100202070B88821787052E9
:106150002078801C20702178B86870502078001D4D
:1061600020700120BDE8F0811220FBE710B5044645
:10617000A078042801DCA07808B90F2010BDD4F85D
:106180000300B449091F0860042001F016FA08B999
:106190001020F3E70120F1E70346AE48001F006836
:1061A0001060042008700120704770B504466568CF
:1061B000E67815B1B5F1FF3F01D10E2070BD314633
:1061C000284601F032FAF9E770B506460C46154646
:1061D00001F065FA286004202070012070BD03469C
:1061E0009C48001F40681060042008700120704720
:1061F00010B50446E078052801DCE07808B90F20E6
:1062000010BDE0789349091F08720831012001F0A0
:10621000D4F908B91020F3E70120F1E703468D48CF
:10622000001F007A107001200870704770B5054695
:10623000A878192806DCA878052190FBF1F201FB6B
:10624000120008B10F2070BDA878052190FBF1F075
:10625000C6B200240EE004EB8401E81C405C28B1C7
:1062600004EB8401E81C405C052801DD0E20EAE710
:10627000601CC4B2B442EEDB002410E004EB8400E6
:10628000401CE91C0A5804EB8401E81C405C401ED9
:106290007049891D01EB80000260601CC4B2B442E9
:1062A000ECDB6C49891D142001F087F908B9102036
:1062B000C9E70120C7E7F0B503460C460025D878AA
:1062C000FF2827D100202070002120E06148801D98
:1062D00000EB81000068C0B15E48801D00EB8100CA
:1062E0000068401C88B1481C05EB8506905559484C
:1062F000801D00EB8100066805EB8507501CC65128
:106300002078401D2070681CC5B2481CC1B2052908
:10631000DCDB13E0D87810B1D878052801DD0F2038
:10632000F0BDD8781070D878401E4A4EB61D06EBE6
:1063300080000068C2F80100052020700120EFE70E
:1063400010B50446E07808B1012000E00020414982
:10635000091F88771E31012001F02FF908B910209C
:1063600010BD0120FCE703463A48001F807F01284A
:1063700000D100E00020107001200870704770B557
:106380000446A078052801DCA07808B90F2070BD6C
:10639000E078C0B9012511E005EB85012F4A60685E
:1063A00042F8110005EB850002EB4001042001F0EA
:1063B00024F908B91020EAE7681CC5B206F092FD7E
:1063C000A842E9DC18E006F08DFDE178884201DCA6
:1063D0000E20DCE7E17801EB8101204A606842F899
:1063E0001100E07800EB800002EB4001042001F096
:1063F00004F908B91020CAE70120C8E72DE9F041E7
:1064000004460D461646A078032801DCA07810B992
:106410000F20BDE8F081E078A0B9012700202870A6
:106420000BE007EB87000D4951F8100029787050F8
:106430002878001D2870781CC7B206F053FDB842BA
:10644000EFDC16E006F04EFDE178884208DC0E2015
:10645000DFE70000A0120020558778AAE80100209D
:10646000E07800EB8000F74951F81000306004201C
:1064700028700120CDE770B50446A078032801DC20
:10648000A07808B90F2070BDE078D0B9012513E0DD
:10649000A08805EB8501EB4A02EB4101888005EB02
:1064A000850002EB4000011D022001F0A6F808B9AA
:1064B0001020E8E7681CC5B206F014FDA842E7DC2E
:1064C0001AE006F00FFDE178884201DC0E20DAE7E1
:1064D000A088E17801EB8101DA4A02EB4101888072
:1064E000E07800EB800002EB4000011D022001F08B
:1064F00084F808B91020C6E70120C4E72DE9F0416F
:1065000004460D461646A078032801DCA07810B991
:106510000F20BDE8F081E078A8B90127002028709D
:106520000CE007EB8700C74901EB40008088297821
:1065300070522878801C2870781CC7B206F0D2FCF4
:10654000B842EEDC10E006F0CDFCE178884201DCD8
:106550000E20DEE7E07800EB8000BA4901EB400056
:1065600080883080022028700120D2E770B5044670
:10657000A078022801DCA07808B90F2070BDE0786F
:10658000D0B9012513E0207905EB8501AD4A02EB76
:106590004101C87105EB850002EB4000C11D0120DF
:1065A00001F02BF808B91020E8E7681CC5B206F026
:1065B00099FCA842E7DC1AE006F094FCE1788842F6
:1065C00001DC0E20DAE72079E17801EB81019D4AB8
:1065D00002EB4101C871E07800EB800002EB400063
:1065E000C11D012001F009F808B91020C6E70120FB
:1065F000C4E72DE9F04104460D461646A07802286E
:1066000001DCA07810B90F20BDE8F081E078A8B9CE
:106610000127002028700CE007EB8700894901EB77
:106620004000C079297870542878401C2870781C64
:10663000C7B206F057FCB842EEDC10E006F052FCA0
:10664000E178884201DC0E20DEE7E07800EB800094
:106650007C4901EB4000C079307001202870012096
:10666000D2E770B50446A078032801DCA07808B909
:106670000F2070BDE07808BB01251AE0207905EBFA
:106680008501704A02EB41010872607905EB8501D2
:1066900002EB4101487205EB850002EB400000F17E
:1066A0000801022000F0A9FF08B91020E1E7681CEA
:1066B000C5B206F017FCA842E0DC22E006F012FCAE
:1066C000E178884201DC0E20D3E72079E17801EB04
:1066D00081015C4A02EB410108726079E17801EBCB
:1066E000810102EB41014872E07800EB800002EB8F
:1066F000400000F10801022000F07FFF08B91020DF
:10670000B7E70120B5E72DE9F04104460D461646EE
:10671000A078032802DD0F20BDE8F081E07808B101
:10672000A078F0B901270020287015E007EB87005A
:10673000444901EB4000007A2978705407EB870048
:10674000404901EB4000417A2878401C31542878B8
:10675000801C2870781CC7B206F0C4FBB842E5DC88
:1067600017E006F0BFFBE178884201DC0E20D3E79A
:10677000E07800EB8000334901EB4000007A307094
:10678000E07800EB800001EB4000407A707002205E
:1067900028700120C0E770B50446A078052801DC08
:1067A000A07808B90F2070BDE078D0B9012513E0BA
:1067B000207905EB8501234A02EB4101887105EB45
:1067C000850002EB4000811D012000F016FF08B992
:1067D0001020E8E7681CC5B206F084FBA842E7DC9D
:1067E0001AE006F07FFBE178884201DC0E20DAE750
:1067F0002079E17801EB8101124A02EB41018871B5
:10680000E07800EB800002EB4000811D012000F0E9
:10681000F4FE08B91020C6E70120C4E72DE9F041D5
:1068200004460D461646A078032802DD0F20BDE879
:10683000F081E07808B1A078C0B901270020287065
:106840000FE00000E801002007EB8700A34901EBFF
:1068500040008079297870542878401C2870781C72
:10686000C7B206F03FFBB842EEDC10E006F03AFBA0
:10687000E178884201DC0E20D9E7E07800EB800067
:10688000964901EB4000807930700120287001208A
:10689000CDE72DE9F04104460D461746E178207911
:1068A00001EB002086B26079822802DD0E20BDE86F
:1068B000F081B6F5004F01DB1120F8E76079304434
:1068C000B0F5004F02DD7042287001E06079287059
:1068D00029783A46304601F023FF08B91020E6E750
:1068E0000120E4E710B50446A07810B900F015FEC9
:1068F00008E0A078052805D1E1788800221D042150
:1069000001F04AFF012010BD70B506460C46154641
:106910002946204600F046FE012070BD10B5044611
:10692000A078012801DD0F2010BDA078012805D135
:10693000E07818B9022000F0D5FD1CE0A07818B965
:10694000012000F0CFFD16E006F0CCFAE178884295
:106950000FDDE07800F069FDE07800F047FDE078B9
:1069600000F01CFDE07801F085F8E07802F022FCF0
:1069700001E00E20D8E70120D6E770B50446A078E4
:1069800008B90F2070BDE078022804D003280ED08B
:1069900005281FD114E02079611D02F097FA054601
:1069A000012D02D1A0700220ECE72846EAE76179C8
:1069B000207902F03EFB012800D1E3E71520E1E752
:1069C00061792079A21D02F0BCFA012800D1D9E733
:1069D0001620D7E700BF00BF0E20D3E770B50446EE
:1069E0000D461646E078012802D0042814D109E0AB
:1069F0006179207933462A4602F0C9FA012800D18C
:106A000070BD0AE06179207933462A4602F0F5FA32
:106A100008B10120F4E700E000BF00BF1520EFE758
:106A200070B50446A07808B90F2070BDE078022840
:106A300004D003280ED005281FD114E02079611D51
:106A400002F019FB0546012D02D1A0700220ECE7EF
:106A50002846EAE76179207902F0EBFA012800D1B3
:106A6000E3E71520E1E761792079A21D02F05DFBE3
:106A7000012800D1D9E71620D7E700BF00BF0E20BC
:106A8000D3E710B50446A07808B90F2010BDE07810
:106A900018B9012002F0DCF905E0E07802F08AFB89
:106AA00008B91720F2E70120F0E77CB506460D464D
:106AB000144600200190FF200090694601A804F0D0
:106AC0009BFD012808D1019820609DF800002071ED
:106AD0000520287001207CBD1220FCE7E801002081
:106AE0000020C9490860704730B503460C46194676
:106AF0000AE00846491CC44D2D1D05EB0010C06876
:106B0000904201D1C8B230BDA142F2D30020FAE7D1
:106B10007FB50546BC4A1288BB4B5B88D118BA4A80
:106B200010882A46FFF7E0FF044694B3B648008871
:106B3000201A012824D9601EB34A121D02EB00114D
:106B40001022684601F034FDAF4B1B88E31A1A018E
:106B5000AD4B1E881B1D03EB06111B1F1B885B1C06
:106B6000A94E361D06EB031001F04DFD311F0A88BA
:106B7000091D01EB02101022694601F019FD00BF4A
:106B8000A1480088401CA049088008464088401E53
:106B900048807FBD2DE9F0410746884615461E46D0
:106BA00000BF99480088984949880844142802DBA6
:106BB0000020BDE8F08100BF93480088924A5288C7
:106BC000811832460020FFF78FFF00BB8E4B5B8899
:106BD0001A018D4BB3F800C01B1D03EB0C111B1FDA
:106BE0001B885B1CDFF820C20CF1040C0CEB0310BB
:106BF00001F009FD844804880088401C824908800F
:106C000000218148001D00EB041001700CE03046AB
:106C1000FFF77EFF7C4800887B4A52888118324605
:106C20000020FFF761FF441E7748001D00EB0410B1
:106C300047707548001D00EB0410C6604FB905B9D8
:106C40006D1C4FF0010800216F48001D00EB04107F
:106C500001706D48001D00EB0410A0F802806A4826
:106C6000001D00EB0410456000216748001D00EB8B
:106C70000410816001209CE770B5054662480088D9
:106C8000614A528881182A460020FFF72DFF0446EA
:106C900004B35D4B1B885C4E768833441B1B1A0182
:106CA000594B1B1D03EB0411631E574E361D06EB9B
:106CB000031001F0A8FC301F0088A04205D2301F4D
:106CC0004088401E311F488004E04F480088401E25
:106CD0004D49088070BD7FB505464B4801882A465E
:106CE0000020FFF701FF044654B3601E464A121D00
:106CF00002EB00111022684601F05AFC424B1B883F
:106D00001B1B1A01404B1B1D03EB0411631E3E4E5F
:106D1000361D06EB031001F076FC311F0988491E71
:106D20008AB2311F0A80091D01EB02101022694648
:106D300001F03EFC301F4088401C311F488000BFDE
:106D40007FBD70B50024304C241D27E0207820B38F
:106D5000E56800202070607830B1012807D0022853
:106D60000FD0032816D10EE00120207000BF6188EB
:106D7000481E608021B92846FFF77EFF103C0AE0DC
:106D800000BFA84707E0A84718B92846FFF774FFD7
:106D9000103C00E000BF00BF00BF10341A4801885B
:106DA000001D00EB0110A042D0D870BD1648001D98
:106DB0000AE08168491C81604268914203D3002146
:106DC00081600121017010300F490A88091D01EB13
:106DD00002118142EDD8704770B504460A48008818
:106DE000094A5288811822460020FFF77DFE054699
:106DF0000DB9002070BD04480088801CA84201DD48
:106E00000120F7E70220F5E70C10002070B50446DA
:106E1000002501F0C3FB0646A07900F0030008B18D
:106E2000212070BDB74800684FF00061D1F8881389
:106E3000451A20688068A84201D92020F1E74FF464
:106E40008072002104F1080001F0D4FBAE4A042155
:106E5000706805F02BF822689168AA4A121F106822
:106E600004F0DEFFDDE7F8B504460025A7480090F2
:106E700001F094FB0646A6480078F02844D120791A
:106E8000022832D107200059A24909688860A14927
:106E9000E06809684860E07A9E4988719E48096800
:106EA00008609C48006880689A498979B0FBF1F0D5
:106EB000984909688968974A9279B1FBF2F302FB15
:106EC000131109B1012100E0002108449149888093
:106ED0000846FFF79BFF0546012804D1F1208C49A5
:106EE00008700120F8BD2846FCE72079012814D15C
:106EF0006A460421306904F0D9FF8249091F0868F5
:106F000004F032FE0020EDE781480078F12801D13D
:106F10000120E7E700207E4908700E20E2E72DE916
:106F2000F04104460D4617467A488088401EA0422C
:106F300001D3C82D02DD0020BDE8F081610975484C
:106F4000083050F8210004F01F0201219140084050
:106F5000F0B96C48001F00686E49897904FB01068E
:106F60003A462946304604F088FF78B161096948FD
:106F7000083050F8210004F01F020121914008431D
:106F800062096449083141F8220001E00020D3E79A
:106F90000120D1E730B502460B46002100201070D9
:106FA00014E04C095B48083050F8240001F01F053C
:106FB0000124AC40204040B923F8021B1078801C0B
:106FC00010701078642800DD04E0491C5148808866
:106FD0008842E6D800BF107808B9012030BD0020F3
:106FE000FCE770B505460C46A9B2464A121F106868
:106FF00001F05EFB201A84B20CB9012070BD0020A4
:10700000FCE710B586B001F0C9FA044604F0D2F9E5
:107010003D49086001AA1421A06804F023FF394A01
:10702000121F12684FF00063D3F88433D11A354A27
:10703000083A106804F0F4FE01AA1421A06804F0D4
:107040001CFF30B1304A0C21606804F016FF06B016
:1070500010BD0020FBE770B5064601F09FFA05461B
:107060006C692E48066011E004F0A4F9216888429A
:1070700005D12A4A1021204604F0FFFE70BD274AA0
:10708000121D0C21201D04F0EDFE10341D48001DC2
:107090000068A042E8D8224A1021286904F0E2FEE4
:1070A000184A121D12684FF00063D3F88C33D11ABE
:1070B000286904F0B5FE1A4A1021286904F0DDFEA3
:1070C0003046FFF7C8FFD9E770B501F067FA05460B
:1070D0006C6906E004F06EF92168884200D105E091
:1070E00010340848001D0068A042F3D800BF103CCF
:1070F0002068492804D320685D2801D8207870BD15
:107100005320FCE78C03000860110020A53CC35A03
:10711000580000205C000020558778AA6C110020E0
:107120005011002010B58E4B0122FF21002002F0EB
:1071300036F910BD70B5054689480570012D02D19C
:107140004FF47A7400E00524864B2246002108465D
:10715000FFF720FD70BD30B5C1B004464FF480711B
:1071600001A803F017FD05F0BDFE054619E014B1B6
:10717000A54201D005B1A4B98DF804509DF80810BE
:107180000DF10A000A18C11E01A802F03EFE8DF89A
:1071900009009DF808009DF807100844C0B28DF85A
:1071A0000800281EA5F10101CDB2E0D19DF808002C
:1071B000401CC0B28DF808009DF808200DF10903AD
:1071C0000021084602F0CCF841B030BD10B505F002
:1071D00089FE044634E004EB8400634901EB40007F
:1071E000007A30B304EB4400604901EB8000007A80
:1071F000012825D104EB440051F82000401C04EB89
:1072000044015A4A42F8210000EB800004EB44019B
:1072100002EB81014968B1EB800F11D82046FFF7DE
:107220009AFF002004EB4401504A02EB81010872EE
:1072300006E0002004EB44014C4A02EB8101087295
:10724000601EC0B2041EC6D101240AE004EB440053
:10725000464901EB8000007A012800D110BD601C76
:10726000C4B205F03FFEA042F0DCAFF29F00FFF792
:1072700003FD00BFF2E770B506461EB13446701C30
:10728000C5B203E0012405F02DFE054635E004EB10
:107290008400354901EB4000007A28B305F082FDF7
:1072A00004EB8401304A02EB4101497AB0FBF1F270
:1072B00001FB12006421484300EB800040F6C4113A
:1072C00001EB400004EB4401284A02EB81014860D5
:1072D000002004EB440142F82100012004EB4401AA
:1072E00002EB8101087206E0002004EB44011F4A12
:1072F00002EB81010872601CC4B2AC42C7DBAFF282
:107300003313142200210220FFF744FC70BDF0B5B6
:10731000C1B005460E46174600244FF4807101A8FF
:1073200003F038FC3146284602F04FFE0446A4B173
:1073300001208DF804008DF805508DF806608DF859
:1073400007402246394602A801F032F9201DC2B298
:1073500001AB0021084602F003F841B0F0BD000087
:107360006401002025710008E80100207C11002044
:1073700010B54FF408720021FE48006801F03AF998
:1073800000224FF400714FF4C06001F041FA002276
:1073900020214FF4406001F03BFA10BD2DE9F05F71
:1073A0008246504605F0E8FE80460022F24B05F08A
:1073B000F7FE064600224FF0814305F0F1FD04463A
:1073C00005F096FE83460022282101F021FABDE84F
:1073D000F09F10B5012404E02046FFF7DFFF601C9A
:1073E000C4B205F07FFDA042F6DC10BD10B5044626
:1073F00004EB8400E14901EB8000406838B104EB04
:1074000084000A4602EB800041682046884710BD90
:1074100010B5002404E02046FFF7E8FF601CC4B26A
:1074200005F060FDA042F6DC10BD10B504464FF03B
:10743000FF3004EB8401D24A42F81100002004EB33
:10744000840102EB41018880012004EB840102EBFE
:1074500041018871002004EB840102EB4101C871F5
:10746000012004EB840102EB41010872032004EBCC
:10747000840102EB4101487204EB8401134603EBE3
:107480004102210101F180000A2101F085F910BDBE
:1074900010B5002404E02046FFF7C7FF601CC4B20B
:1074A00005F020FDA042F6DC10BD10B54FF0FF3016
:1074B000B4490860002004F05FF9B2494860022036
:1074C00008720020487214220021AE480A3001F0F0
:1074D00091F80020AB4988770A461F21402001F02F
:1074E0005BF910BD38B50446A7A000680090FFF70F
:1074F000DCFFFFF7CDFFFFF78BFFFFF76AFFFFF71A
:1075000037FF012001F0A4FC022C02D1684601F0F3
:107510009DFA0120FFF70EFE38BD10B50022402174
:10752000104601F075F910BD10B5964A1F21402094
:1075300001F0F6F89349486804F01EF9C0B1AFF2C3
:107540001703322200210846FFF724FB8F480078FA
:10755000401CC0B28D490870032812DDAFF237001D
:10756000FFF78AFBFFF7D9FF0120FFF7BBFF08E019
:1075700086480078002804DD00208449087005F062
:10758000B3FC10BD38B50446A0006A46042101F0E2
:10759000C7F80098401C0090A0006A46042101F042
:1075A000FBF838BD70B504460D46402020702178A8
:1075B0002A46002001F0B4F870BD70B505460C46AF
:1075C0007049611A01F140002246294601F0E4F8B1
:1075D00070BD70B504460D4609E004EB840105EB6F
:1075E0004102210101F180000A2101F099F8201ED9
:1075F000A4F10101CCB2F0D170BD2DE9F0410546F6
:107600000C465F48261A0A20B6FBF0F000018030D5
:107610000A21B6FBF1F201FB126147182246294606
:10762000384601F0B9F8BDE8F0812DE9FF4706467C
:107630000F4600244FF0040A00F0B0FF8046D8F84F
:1076400000500096DFB901E0601CC4B2042C07DAD8
:1076500003F0B0FE05F10C0151F824108842F3D17B
:10766000042C0ADA0C2101EB840148196A46042132
:1076700004F003FC04B0BDE8F0872320FAE703F030
:1076800099FE00F0FF090C22494601A800F0B2FF64
:107690006A46102105F10C0004F008FCEAE72DE928
:1076A000F041002400F07AFF06463568042701E027
:1076B000601CC4B2042C07DA03F07CFE05F10C0157
:1076C00051F824108842F3D184B1601E05F10C01F9
:1076D00051F8200050B1601E51F82000B0F1FF3F7A
:1076E00004D0601E51F82000BDE8F0810120FBE7C6
:1076F0002DE9F74F8CB08946144600200A902546A4
:10770000E11704EB5171C81005F01FFDCDE906012A
:10771000484605F031FD064600221D4B05F040FDB0
:10772000CDE904010C9805F027FD06460022124B16
:1077300005F036FD00224FF08143CDE9000105F050
:107740002FFCCDE90201DDE9042305F029FC824686
:10775000DDE9062305F024FCCDE9080105F0C8FCAD
:1077600080460AAA012100F0DBFF402C62DAE11713
:1077700010E000006801002000004440ACD5000883
:10778000E80100209C12002000F801536C01002049
:107790000000204004EB5171C910A4EBC10201218B
:1077A00091409DF828201140002943D02046E11740
:1077B00004EB5171C910A4EBC102012191409DF865
:1077C00028208A430A92A246E11704EB5171C8109F
:1077D00005F0BBFCCDE90601484605F0CDFC0546A9
:1077E0000022FE4B05F0DCFCCDE902010C9805F00F
:1077F000C3FC07460022FA4B05F0D2FC05460022E6
:107800004FF0814305F0CCFBCDE90001DDE9022317
:1078100005F0C6FBCDE90401DDE9062305F0C0FB58
:10782000CDE9080105F064FC83460AAA012100F0B5
:10783000B3FF27E0FF2C25D1484605F09DFC054607
:107840000022E64B05F0ACFCCDE904010C9805F0F4
:1078500093FC07460022E24B05F0A2FC05460022FD
:107860004FF0814305F09CFB8246DDE9042305F0DF
:1078700097FBCDE9060105F03BFC002208210990A9
:1078800000F0C6FF0FB0BDE8F08F2DE9F74F8CB0C8
:107890008946144600200A902546E11704EB5171F1
:1078A000C81005F052FCCDE90601484605F064FC1D
